Component: ARM Compiler 6.16 Tool: armlink [5dfeaa00]

==============================================================================

Section Cross References

    tasks.o(.text.xTaskCreate) refers to heap_4.o(.text.pvPortMalloc) for pvPortMalloc
    tasks.o(.text.xTaskCreate) refers to heap_4.o(.text.vPortFree) for vPortFree
    tasks.o(.text.xTaskCreate) refers to list.o(.text.vListInitialiseItem) for vListInitialiseItem
    tasks.o(.text.xTaskCreate) refers to port.o(.text.pxPortInitialiseStack) for pxPortInitialiseStack
    tasks.o(.text.xTaskCreate) refers to port.o(.text.vPortEnterCritical) for vPortEnterCritical
    tasks.o(.text.xTaskCreate) refers to tasks.o(.bss..L_MergedGlobals) for .L_MergedGlobals
    tasks.o(.text.xTaskCreate) refers to tasks.o(.bss.pxReadyTasksLists) for pxReadyTasksLists
    tasks.o(.text.xTaskCreate) refers to list.o(.text.vListInitialise) for vListInitialise
    tasks.o(.text.xTaskCreate) refers to tasks.o(.bss..L_MergedGlobals.1) for .L_MergedGlobals.1
    tasks.o(.text.xTaskCreate) refers to list.o(.text.vListInsertEnd) for vListInsertEnd
    tasks.o(.text.xTaskCreate) refers to port.o(.text.vPortExitCritical) for vPortExitCritical
    tasks.o(.ARM.exidx.text.xTaskCreate) refers to tasks.o(.text.xTaskCreate) for [Anonymous Symbol]
    tasks.o(.text.vTaskDelete) refers to port.o(.text.vPortEnterCritical) for vPortEnterCritical
    tasks.o(.text.vTaskDelete) refers to tasks.o(.bss..L_MergedGlobals) for .L_MergedGlobals
    tasks.o(.text.vTaskDelete) refers to list.o(.text.uxListRemove) for uxListRemove
    tasks.o(.text.vTaskDelete) refers to tasks.o(.bss.pxReadyTasksLists) for pxReadyTasksLists
    tasks.o(.text.vTaskDelete) refers to heap_4.o(.text.vPortFree) for vPortFree
    tasks.o(.text.vTaskDelete) refers to list.o(.text.vListInsertEnd) for vListInsertEnd
==============================================================================

Removing Unused input sections from the image.

    Removing timers.o(.text), (0 bytes).
    Removing tasks.o(.text), (0 bytes).
    Removing tasks.o(.ARM.exidx.text.xTaskCreate), (8 bytes).
    Removing tasks.o(.ARM.exidx.text.vTaskDelete), (8 bytes).
    Removing tasks.o(.text.xTaskDelayUntil), (184 bytes).
    Removing tasks.o(.ARM.exidx.text.xTaskDelayUntil), (8 bytes).
    Removing tasks.o(.ARM.exidx.text.vTaskSuspendAll), (8 bytes).
    Removing tasks.o(.ARM.exidx.text.prvAddCurrentTaskToDelayedList), (8 bytes).
    Removing tasks.o(.ARM.exidx.text.xTaskResumeAll), (8 bytes).
    Removing tasks.o(.text.vTaskDelay), (130 bytes).
    Removing tasks.o(.ARM.exidx.text.vTaskDelay), (8 bytes).
    Removing tasks.o(.text.uxTaskPriorityGet), (40 bytes).
    Removing tasks.o(.ARM.exidx.text.uxTaskPriorityGet), (8 bytes).
    Removing tasks.o(.text.uxTaskPriorityGetFromISR), (50 bytes).
    Removing tasks.o(.ARM.exidx.text.uxTaskPriorityGetFromISR), (8 bytes).
    Removing tasks.o(.text.vTaskPrioritySet), (236 bytes).
    Removing tasks.o(.ARM.exidx.text.vTaskPrioritySet), (8 bytes).
    Removing tasks.o(.text.vTaskSuspend), (260 bytes).
==============================================================================

Image Symbol Table

    Local Symbols

    Symbol Name                              Value     Ov Type        Size  Object(Section)

    ../clib/division.s                       0x00000000   Number         0  aeabi_sdiv.o ABSOLUTE
    ../clib/microlib/division.c              0x00000000   Number         0  ldiv.o ABSOLUTE
    ../clib/microlib/division.c              0x00000000   Number         0  uidiv.o ABSOLUTE
    ../clib/microlib/division.c              0x00000000   Number         0  uldiv.o ABSOLUTE
    ../clib/microlib/init/entry.s            0x00000000   Number         0  entry.o ABSOLUTE
    ../clib/microlib/init/entry.s            0x00000000   Number         0  entry2.o ABSOLUTE
    ../clib/microlib/init/entry.s            0x00000000   Number         0  entry5.o ABSOLUTE
    ../clib/microlib/init/entry.s            0x00000000   Number         0  entry7a.o ABSOLUTE
    ../clib/microlib/init/entry.s            0x00000000   Number         0  entry7b.o ABSOLUTE
    ../clib/microlib/init/entry.s            0x00000000   Number         0  entry8a.o ABSOLUTE
    ../clib/microlib/init/entry.s            0x00000000   Number         0  entry8b.o ABSOLUTE
    ../clib/microlib/init/entry.s            0x00000000   Number         0  entry9a.o ABSOLUTE
    ../clib/microlib/init/entry.s            0x00000000   Number         0  entry9b.o ABSOLUTE
    ../clib/microlib/init/entry.s            0x00000000   Number         0  entry10a.o ABSOLUTE
    ../clib/microlib/init/entry.s            0x00000000   Number         0  entry10b.o ABSOLUTE
    ../clib/microlib/init/entry.s            0x00000000   Number         0  entry11a.o ABSOLUTE
    ../clib/microlib/init/entry.s            0x00000000   Number         0  entry11b.o ABSOLUTE
    ../clib/microlib/longlong.c              0x00000000   Number         0  llshl.o ABSOLUTE
    ../clib/microlib/longlong.c              0x00000000   Number         0  llushr.o ABSOLUTE
    ../clib/microlib/longlong.c              0x00000000   Number         0  llsshr.o ABSOLUTE
    ../clib/microlib/printf/printf.c         0x00000000   Number         0  printfb.o ABSOLUTE
    ../clib/microlib/printf/printf.c         0x00000000   Number         0  printf0.o ABSOLUTE
    ../clib/microlib/printf/printf.c         0x00000000   Number         0  printf1.o ABSOLUTE
    ../clib/microlib/printf/printf.c         0x00000000   Number         0  printf2.o ABSOLUTE
    ../clib/microlib/printf/printf.c         0x00000000   Number         0  printf3.o ABSOLUTE
    ../clib/microlib/printf/printf.c         0x00000000   Number         0  printf4.o ABSOLUTE
    ../clib/microlib/printf/printf.c         0x00000000   Number         0  printf5.o ABSOLUTE
    ../clib/microlib/printf/printf.c         0x00000000   Number         0  printf6.o ABSOLUTE
    ../clib/microlib/printf/printf.c         0x00000000   Number         0  printf7.o ABSOLUTE
    ../clib/microlib/printf/printf.c         0x00000000   Number         0  printf8.o ABSOLUTE
    ../clib/microlib/printf/printf.c         0x00000000   Number         0  printfa.o ABSOLUTE
    ../clib/microlib/printf/stubs.s          0x00000000   Number         0  printfstubs.o ABSOLUTE
    ../clib/microlib/stdio/puts.c            0x00000000   Number         0  puts.o ABSOLUTE
    ../clib/microlib/stdio/puts.c            0x00000000   Number         0  puts_e.o ABSOLUTE
    ../clib/microlib/stdio/streams.c         0x00000000   Number         0  stdout.o ABSOLUTE
    ../clib/microlib/string/memchr.c         0x00000000   Number         0  memchr.o ABSOLUTE
    ../clib/microlib/string/memcpy.c         0x00000000   Number         0  memcpya.o ABSOLUTE
    ../clib/microlib/string/memcpy.c         0x00000000   Number         0  memcpyb.o ABSOLUTE
    ../clib/microlib/string/memset.c         0x00000000   Number         0  memseta.o ABSOLUTE
    ../clib/microlib/string/strlen.c         0x00000000   Number         0  strlen.o ABSOLUTE
    ../clib/microlib/stubs.s                 0x00000000   Number         0  iusefp.o ABSOLUTE
    ../fplib/microlib/fpadd.c                0x00000000   Number         0  fadd.o ABSOLUTE
    ../fplib/microlib/fpadd.c                0x00000000   Number         0  dadd.o ABSOLUTE
    ../fplib/microlib/fpcmp.c                0x00000000   Number         0  fcmplt.o ABSOLUTE
    ../fplib/microlib/fpdiv.c                0x00000000   Number         0  ddiv.o ABSOLUTE
    ../fplib/microlib/fpepilogue.c           0x00000000   Number         0  fepilogue.o ABSOLUTE
    ../fplib/microlib/fpepilogue.c           0x00000000   Number         0  depilogue.o ABSOLUTE
    ../fplib/microlib/fpfix.c                0x00000000   Number         0  ffixi.o ABSOLUTE
    ../fplib/microlib/fpfix.c                0x00000000   Number         0  ffixui.o ABSOLUTE
    ../fplib/microlib/fpfix.c                0x00000000   Number         0  dfixul.o ABSOLUTE
    ../fplib/microlib/fpflt.c                0x00000000   Number         0  fflti.o ABSOLUTE
    ../fplib/microlib/fpflt.c                0x00000000   Number         0  ffltui.o ABSOLUTE
    ../fplib/microlib/fpmul.c                0x00000000   Number         0  fmul.o ABSOLUTE
    ../fplib/microlib/fpmul.c                0x00000000   Number         0  dmul.o ABSOLUTE
    ..\Firmware\CMSIS\GD\GD32F10x\Source\ARM\startup_gd32f10x_hd.s 0x00000000   Number         0  startup_gd32f10x_hd.o ABSOLUTE
    DevicesCRC.c                             0x00000000   Number         0  devicescrc.o ABSOLUTE
    DevicesDelay.c                           0x00000000   Number         0  devicesdelay.o ABSOLUTE
    DevicesFlash.c                           0x00000000   Number         0  devicesflash.o ABSOLUTE
    DevicesKey.c                             0x00000000   Number         0  deviceskey.o ABSOLUTE
    DevicesLed.c                             0x00000000   Number         0  devicesled.o ABSOLUTE
    DevicesList.c                            0x00000000   Number         0  deviceslist.o ABSOLUTE
    DevicesMem.c                             0x00000000   Number         0  devicesmem.o ABSOLUTE
    DevicesMotor.c                           0x00000000   Number         0  devicesmotor.o ABSOLUTE
    DevicesQueue.c                           0x00000000   Number         0  devicesqueue.o ABSOLUTE
    DevicesRandom.c                          0x00000000   Number         0  devicesrandom.o ABSOLUTE
    DevicesSoftTimer.c                       0x00000000   Number         0  devicessofttimer.o ABSOLUTE
    DevicesTime.c                            0x00000000   Number         0  devicestime.o ABSOLUTE
    DevicesTimer.c                           0x00000000   Number         0  devicestimer.o ABSOLUTE
    DevicesUart.c                            0x00000000   Number         0  devicesuart.o ABSOLUTE
    DevicesWatchDog.c                        0x00000000   Number         0  deviceswatchdog.o ABSOLUTE
    cdrcmple.s                               0x00000000   Number         0  cdrcmple.o ABSOLUTE
    croutine.c                               0x00000000   Number         0  croutine.o ABSOLUTE
    dc.s                                     0x00000000   Number         0  dc.o ABSOLUTE
    event_groups.c                           0x00000000   Number         0  event_groups.o ABSOLUTE
    gd32f10x_adc.c                           0x00000000   Number         0  gd32f10x_adc.o ABSOLUTE
    gd32f10x_bkp.c                           0x00000000   Number         0  gd32f10x_bkp.o ABSOLUTE
    gd32f10x_can.c                           0x00000000   Number         0  gd32f10x_can.o ABSOLUTE
    gd32f10x_crc.c                           0x00000000   Number         0  gd32f10x_crc.o ABSOLUTE
    gd32f10x_dac.c                           0x00000000   Number         0  gd32f10x_dac.o ABSOLUTE
    gd32f10x_dbg.c                           0x00000000   Number         0  gd32f10x_dbg.o ABSOLUTE
    gd32f10x_dma.c                           0x00000000   Number         0  gd32f10x_dma.o ABSOLUTE
    gd32f10x_exmc.c                          0x00000000   Number         0  gd32f10x_exmc.o ABSOLUTE
    gd32f10x_exti.c                          0x00000000   Number         0  gd32f10x_exti.o ABSOLUTE
    gd32f10x_fmc.c                           0x00000000   Number         0  gd32f10x_fmc.o ABSOLUTE
    gd32f10x_fwdgt.c                         0x00000000   Number         0  gd32f10x_fwdgt.o ABSOLUTE
    gd32f10x_gpio.c                          0x00000000   Number         0  gd32f10x_gpio.o ABSOLUTE
    gd32f10x_i2c.c                           0x00000000   Number         0  gd32f10x_i2c.o ABSOLUTE
    gd32f10x_it.c                            0x00000000   Number         0  gd32f10x_it.o ABSOLUTE
    gd32f10x_misc.c                          0x00000000   Number         0  gd32f10x_misc.o ABSOLUTE
    gd32f10x_pmu.c                           0x00000000   Number         0  gd32f10x_pmu.o ABSOLUTE
    gd32f10x_rcu.c                           0x00000000   Number         0  gd32f10x_rcu.o ABSOLUTE
    gd32f10x_rtc.c                           0x00000000   Number         0  gd32f10x_rtc.o ABSOLUTE
    gd32f10x_sdio.c                          0x00000000   Number         0  gd32f10x_sdio.o ABSOLUTE
    gd32f10x_spi.c                           0x00000000   Number         0  gd32f10x_spi.o ABSOLUTE
    gd32f10x_timer.c                         0x00000000   Number         0  gd32f10x_timer.o ABSOLUTE
    gd32f10x_usart.c                         0x00000000   Number         0  gd32f10x_usart.o ABSOLUTE
    gd32f10x_wwdgt.c                         0x00000000   Number         0  gd32f10x_wwdgt.o ABSOLUTE
    handlers.s                               0x00000000   Number         0  handlers.o ABSOLUTE
    heap_4.c                                 0x00000000   Number         0  heap_4.o ABSOLUTE
    init.s                                   0x00000000   Number         0  init.o ABSOLUTE
    list.c                                   0x00000000   Number         0  list.o ABSOLUTE
    main.c                                   0x00000000   Number         0  main.o ABSOLUTE
    port.c                                   0x00000000   Number         0  port.o ABSOLUTE
    queue.c                                  0x00000000   Number         0  queue.o ABSOLUTE
    system_gd32f10x.c                        0x00000000   Number         0  system_gd32f10x.o ABSOLUTE
    systick.c                                0x00000000   Number         0  systick.o ABSOLUTE
    tasks.c                                  0x00000000   Number         0  tasks.o ABSOLUTE
    timers.c                                 0x00000000   Number         0  timers.o ABSOLUTE
    userTask.c                               0x00000000   Number         0  usertask.o ABSOLUTE
    RESET                                    0x08000000   Section      304  startup_gd32f10x_hd.o(RESET)
    .ARM.Collect$$$$00000000                 0x08000130   Section        0  entry.o(.ARM.Collect$$$$00000000)
    .ARM.Collect$$$$00000001                 0x08000130   Section        4  entry2.o(.ARM.Collect$$$$00000001)
    .ARM.Collect$$$$00000004                 0x08000134   Section        4  entry5.o(.ARM.Collect$$$$00000004)
    .ARM.Collect$$$$00000008                 0x08000138   Section        0  entry7b.o(.ARM.Collect$$$$00000008)
    .ARM.Collect$$$$0000000A                 0x08000138   Section        0  entry8b.o(.ARM.Collect$$$$0000000A)
    .ARM.Collect$$$$0000000B                 0x08000138   Section        8  entry9a.o(.ARM.Collect$$$$0000000B)
    __lit__00000000                          0x08000140   Data           4  entry2.o(.ARM.Collect$$$$00002712)
    .ARM.Collect$$$$0000000D                 0x08000140   Section        0  entry10a.o(.ARM.Collect$$$$0000000D)
    .ARM.Collect$$$$0000000F                 0x08000140   Section        0  entry11a.o(.ARM.Collect$$$$0000000F)
    .ARM.Collect$$$$00002712                 0x08000140   Section        4  entry2.o(.ARM.Collect$$$$00002712)
    .text                                    0x08000144   Section       36  startup_gd32f10x_hd.o(.text)
    .text                                    0x08000168   Section        0  ldiv.o(.text)
    .text                                    0x080001ca   Section        0  uldiv.o(.text)
    .text                                    0x0800022c   Section       36  init.o(.text)
    .text                                    0x08000250   Section        0  llshl.o(.text)
    .text                                    0x0800026e   Section        0  llushr.o(.text)
    [Anonymous Symbol]                       0x08000290   Section        0  gd32f10x_it.o(.text.BusFault_Handler)
    [Anonymous Symbol]                       0x080002b4   Section        0  gd32f10x_it.o(.text.DebugMon_Handler)
    [Anonymous Symbol]                       0x080002b8   Section        0  gd32f10x_it.o(.text.HardFault_Handler)
    [Anonymous Symbol]                       0x080002dc   Section        0  gd32f10x_it.o(.text.MemManage_Handler)
    [Anonymous Symbol]                       0x08000300   Section        0  gd32f10x_it.o(.text.NMI_Handler)
    [Anonymous Symbol]                       0x08000310   Section        0  port.o(.text.PendSV_Handler)
    pxCurrentTCBConst                        0x08000350   Number         0  port.o(.text.PendSV_Handler)
    [Anonymous Symbol]                       0x08000360   Section        0  port.o(.text.SVC_Handler)
    pxCurrentTCBConst2                       0x08000380   Number         0  port.o(.text.SVC_Handler)
    [Anonymous Symbol]                       0x08000384   Section        0  port.o(.text.SysTick_Handler)
    [Anonymous Symbol]                       0x080003b4   Section        0  system_gd32f10x.o(.text.SystemCoreClockUpdate)
    [Anonymous Symbol]                       0x08000430   Section        0  system_gd32f10x.o(.text.SystemInit)
    [Anonymous Symbol]                       0x08000628   Section        0  gd32f10x_it.o(.text.TIMER5_IRQHandler)
    [Anonymous Symbol]                       0x08000664   Section        0  gd32f10x_it.o(.text.TIMER6_IRQHandler)
    [Anonymous Symbol]                       0x0800068c   Section        0  gd32f10x_it.o(.text.UART3_IRQHandler)
    [Anonymous Symbol]                       0x08000760   Section        0  gd32f10x_it.o(.text.UART4_IRQHandler)
    [Anonymous Symbol]                       0x080007e8   Section        0  gd32f10x_it.o(.text.USART0_IRQHandler)
    [Anonymous Symbol]                       0x080008bc   Section        0  gd32f10x_it.o(.text.USART1_IRQHandler)
    [Anonymous Symbol]                       0x08000990   Section        0  gd32f10x_it.o(.text.USART2_IRQHandler)
    [Anonymous Symbol]                       0x08000a64   Section        0  gd32f10x_it.o(.text.UsageFault_Handler)
    [Anonymous Symbol]                       0x08000a88   Section        0  deviceslist.o(.text.cListInit)
    [Anonymous Symbol]                       0x08000a9c   Section        0  deviceslist.o(.text.cListInsert)
    [Anonymous Symbol]                       0x08000b38   Section        0  deviceslist.o(.text.cListRemove)
    [Anonymous Symbol]                       0x08000b58   Section        0  devicessofttimer.o(.text.cSoftTimerCreate)
    [Anonymous Symbol]                       0x08000bac   Section        0  devicessofttimer.o(.text.cSoftTimerMachine)
    [Anonymous Symbol]                       0x08000c3c   Section        0  devicestimer.o(.text.cTimer5Init)
    [Anonymous Symbol]                       0x08000ccc   Section        0  devicestimer.o(.text.cTimer6Init)
    [Anonymous Symbol]                       0x08000d5c   Section        0  gd32f10x_dma.o(.text.dma_channel_disable)
    [Anonymous Symbol]                       0x08000d84   Section        0  gd32f10x_dma.o(.text.dma_channel_enable)
    [Anonymous Symbol]                       0x08000dac   Section        0  gd32f10x_dma.o(.text.dma_circulation_disable)
    [Anonymous Symbol]                       0x08000dd4   Section        0  gd32f10x_dma.o(.text.dma_circulation_enable)
    [Anonymous Symbol]                       0x08000dfc   Section        0  gd32f10x_dma.o(.text.dma_deinit)
    [Anonymous Symbol]                       0x08000e3c   Section        0  gd32f10x_dma.o(.text.dma_init)
    [Anonymous Symbol]                       0x08000eb4   Section        0  gd32f10x_dma.o(.text.dma_transfer_number_get)
    [Anonymous Symbol]                       0x08000ed4   Section        0  deviceskey.o(.text.enumKeyStateMachine)
    [Anonymous Symbol]                       0x08000fec   Section        0  devicesqueue.o(.text.enumQueueInit)
    [Anonymous Symbol]                       0x08001114   Section        0  devicesqueue.o(.text.enumQueuePopDatas)
    [Anonymous Symbol]                       0x08001214   Section        0  devicesqueue.o(.text.enumQueuePushByte)
    [Anonymous Symbol]                       0x08001290   Section        0  devicesqueue.o(.text.enumQueuePushDatas)
    [Anonymous Symbol]                       0x080013d8   Section        0  main.o(.text.fputc)
    [Anonymous Symbol]                       0x08001408   Section        0  gd32f10x_gpio.o(.text.gpio_bit_set)
    [Anonymous Symbol]                       0x0800140c   Section        0  gd32f10x_gpio.o(.text.gpio_bit_write)
    [Anonymous Symbol]                       0x08001418   Section        0  gd32f10x_gpio.o(.text.gpio_init)
    [Anonymous Symbol]                       0x08001934   Section        0  gd32f10x_gpio.o(.text.gpio_input_bit_get)
    [Anonymous Symbol]                       0x08001940   Section        0  gd32f10x_gpio.o(.text.gpio_output_bit_get)
    [Anonymous Symbol]                       0x0800194c   Section        0  devicesqueue.o(.text.iQueueGetLengthOfOccupy)
    [Anonymous Symbol]                       0x08001968   Section        0  devicestime.o(.text.lTimeGetStamp)
    [Anonymous Symbol]                       0x08001984   Section        0  main.o(.text.main)
    [Anonymous Symbol]                       0x08001b08   Section        0  gd32f10x_misc.o(.text.nvic_irq_enable)
    [Anonymous Symbol]                       0x08001b70   Section        0  gd32f10x_misc.o(.text.nvic_priority_group_set)
    [Anonymous Symbol]                       0x08001b84   Section        0  gd32f10x_misc.o(.text.nvic_vector_table_set)
    prvAddCurrentTaskToDelayedList           0x08001ba1   Thumb Code   126  tasks.o(.text.prvAddCurrentTaskToDelayedList)
    [Anonymous Symbol]                       0x08001ba0   Section        0  tasks.o(.text.prvAddCurrentTaskToDelayedList)
    prvIdleTask                              0x08001c21   Thumb Code   100  tasks.o(.text.prvIdleTask)
    [Anonymous Symbol]                       0x08001c20   Section        0  tasks.o(.text.prvIdleTask)
    prvPortStartFirstTask                    0x08001c85   Thumb Code    32  port.o(.text.prvPortStartFirstTask)
    [Anonymous Symbol]                       0x08001c84   Section        0  port.o(.text.prvPortStartFirstTask)
    prvTaskExitError                         0x08001ca5   Thumb Code    46  port.o(.text.prvTaskExitError)
    [Anonymous Symbol]                       0x08001ca4   Section        0  port.o(.text.prvTaskExitError)
    [Anonymous Symbol]                       0x08001cd4   Section        0  heap_4.o(.text.pvPortMalloc)
    [Anonymous Symbol]                       0x08001ea8   Section        0  port.o(.text.pxPortInitialiseStack)
    [Anonymous Symbol]                       0x08001ec8   Section        0  gd32f10x_rcu.o(.text.rcu_all_reset_flag_clear)
    [Anonymous Symbol]                       0x08001edc   Section        0  gd32f10x_rcu.o(.text.rcu_clock_freq_get)
    [Anonymous Symbol]                       0x08001f90   Section        0  gd32f10x_rcu.o(.text.rcu_flag_get)
    [Anonymous Symbol]                       0x08001fac   Section        0  gd32f10x_rcu.o(.text.rcu_periph_clock_enable)
    [Anonymous Symbol]                       0x08001fcc   Section        0  gd32f10x_rcu.o(.text.rcu_periph_reset_disable)
    [Anonymous Symbol]                       0x08001fec   Section        0  gd32f10x_rcu.o(.text.rcu_periph_reset_enable)
    [Anonymous Symbol]                       0x0800200c   Section        0  gd32f10x_timer.o(.text.timer_auto_reload_shadow_enable)
    [Anonymous Symbol]                       0x08002018   Section        0  gd32f10x_timer.o(.text.timer_channel_output_config)
    [Anonymous Symbol]                       0x08002228   Section        0  gd32f10x_timer.o(.text.timer_channel_output_mode_config)
    [Anonymous Symbol]                       0x08002268   Section        0  gd32f10x_timer.o(.text.timer_channel_output_pulse_value_config)
    [Anonymous Symbol]                       0x08002274   Section        0  gd32f10x_timer.o(.text.timer_channel_output_shadow_config)
    [Anonymous Symbol]                       0x080022b4   Section        0  gd32f10x_timer.o(.text.timer_channel_output_struct_para_init)
    [Anonymous Symbol]                       0x080022c0   Section        0  gd32f10x_timer.o(.text.timer_deinit)
    [Anonymous Symbol]                       0x08002390   Section        0  gd32f10x_timer.o(.text.timer_enable)
    [Anonymous Symbol]                       0x0800239c   Section        0  gd32f10x_timer.o(.text.timer_init)
    [Anonymous Symbol]                       0x080024c0   Section        0  gd32f10x_timer.o(.text.timer_interrupt_enable)
    [Anonymous Symbol]                       0x080024c8   Section        0  gd32f10x_timer.o(.text.timer_interrupt_flag_clear)
    [Anonymous Symbol]                       0x080024d0   Section        0  gd32f10x_timer.o(.text.timer_interrupt_flag_get)
    [Anonymous Symbol]                       0x080024e8   Section        0  gd32f10x_timer.o(.text.timer_struct_para_init)
    [Anonymous Symbol]                       0x080024fc   Section        0  deviceskey.o(.text.uiKeyValueGet)
    [Anonymous Symbol]                       0x08002628   Section        0  tasks.o(.text.ulTaskGenericNotifyTake)
    [Anonymous Symbol]                       0x080026a8   Section        0  gd32f10x_usart.o(.text.usart_baudrate_set)
    [Anonymous Symbol]                       0x08002714   Section        0  gd32f10x_usart.o(.text.usart_deinit)
    [Anonymous Symbol]                       0x08002798   Section        0  gd32f10x_usart.o(.text.usart_dma_receive_config)
    [Anonymous Symbol]                       0x080027a4   Section        0  gd32f10x_usart.o(.text.usart_dma_transmit_config)
    [Anonymous Symbol]                       0x080027b0   Section        0  gd32f10x_usart.o(.text.usart_enable)
    [Anonymous Symbol]                       0x080027bc   Section        0  gd32f10x_usart.o(.text.usart_flag_clear)
    [Anonymous Symbol]                       0x080027d4   Section        0  gd32f10x_usart.o(.text.usart_flag_get)
    [Anonymous Symbol]                       0x080027e4   Section        0  gd32f10x_usart.o(.text.usart_interrupt_enable)
    [Anonymous Symbol]                       0x080027fc   Section        0  gd32f10x_usart.o(.text.usart_interrupt_flag_clear)
    [Anonymous Symbol]                       0x08002814   Section        0  gd32f10x_usart.o(.text.usart_interrupt_flag_get)
    [Anonymous Symbol]                       0x08002838   Section        0  gd32f10x_usart.o(.text.usart_parity_config)
    [Anonymous Symbol]                       0x08002848   Section        0  gd32f10x_usart.o(.text.usart_receive_config)
    [Anonymous Symbol]                       0x08002854   Section        0  gd32f10x_usart.o(.text.usart_stop_bit_set)
    [Anonymous Symbol]                       0x08002864   Section        0  gd32f10x_usart.o(.text.usart_transmit_config)
    [Anonymous Symbol]                       0x08002870   Section        0  gd32f10x_usart.o(.text.usart_word_length_set)
    [Anonymous Symbol]                       0x08002880   Section        0  list.o(.text.uxListRemove)
    [Anonymous Symbol]                       0x080028a4   Section        0  devicesdelay.o(.text.vDWTDelayInit)
    [Anonymous Symbol]                       0x080028cc   Section        0  devicescrc.o(.text.vHardCRCInit)
    [Anonymous Symbol]                       0x080028d4   Section        0  deviceskey.o(.text.vKeyInit)
    [Anonymous Symbol]                       0x08002940   Section        0  devicesled.o(.text.vLedInit)
    [Anonymous Symbol]                       0x080029f4   Section        0  devicesled.o(.text.vLedStateMachine)
    [Anonymous Symbol]                       0x08002ad8   Section        0  list.o(.text.vListInitialise)
    [Anonymous Symbol]                       0x08002af0   Section        0  list.o(.text.vListInitialiseItem)
    [Anonymous Symbol]                       0x08002af8   Section        0  list.o(.text.vListInsert)
    [Anonymous Symbol]                       0x08002b5c   Section        0  list.o(.text.vListInsertEnd)
    [Anonymous Symbol]                       0x08002b78   Section        0  devicesmotor.o(.text.vMotorOutputInit)
    [Anonymous Symbol]                       0x08002d04   Section        0  port.o(.text.vPortEnterCritical)
    [Anonymous Symbol]                       0x08002d24   Section        0  port.o(.text.vPortExitCritical)
    [Anonymous Symbol]                       0x08002d40   Section        0  heap_4.o(.text.vPortFree)
    [Anonymous Symbol]                       0x08002df0   Section        0  port.o(.text.vPortSetupTimerInterrupt)
    [Anonymous Symbol]                       0x08002e10   Section        0  deviceskey.o(.text.vSoftTimerKeyCallbackFunction)
    [Anonymous Symbol]                       0x08002e58   Section        0  devicesled.o(.text.vSoftTimerLedCallbackFunction)
    [Anonymous Symbol]                       0x08002e88   Section        0  tasks.o(.text.vTaskDelete)
    [Anonymous Symbol]                       0x08002f50   Section        0  tasks.o(.text.vTaskGenericNotifyGiveFromISR)
    [Anonymous Symbol]                       0x08002fec   Section        0  usertask.o(.text.vTaskInit)
    [Anonymous Symbol]                       0x08003094   Section        0  usertask.o(.text.vTaskKey)
    [Anonymous Symbol]                       0x0800319c   Section        0  usertask.o(.text.vTaskReadMessage)
    [Anonymous Symbol]                       0x08003250   Section        0  tasks.o(.text.vTaskStartScheduler)
    [Anonymous Symbol]                       0x080032b4   Section        0  tasks.o(.text.vTaskSuspendAll)
    __tagsym$$used.0                         0x080032c4   Number         0  tasks.o(.text.vTaskSwitchContext)
    [Anonymous Symbol]                       0x080032c4   Section        0  tasks.o(.text.vTaskSwitchContext)
    [Anonymous Symbol]                       0x08003318   Section        0  devicesuart.o(.text.vUart0DMAInit)
    [Anonymous Symbol]                       0x080033e0   Section        0  devicesuart.o(.text.vUart0Init)
    [Anonymous Symbol]                       0x0800347c   Section        0  devicesuart.o(.text.vUart4Init)
    [Anonymous Symbol]                       0x08003524   Section        0  main.o(.text.vUserSystemInit)
    [Anonymous Symbol]                       0x0800354c   Section        0  port.o(.text.xPortStartScheduler)
    [Anonymous Symbol]                       0x080035ac   Section        0  tasks.o(.text.xTaskCreate)
    [Anonymous Symbol]                       0x08003854   Section        0  tasks.o(.text.xTaskGenericNotify)
    [Anonymous Symbol]                       0x08003938   Section        0  tasks.o(.text.xTaskIncrementTick)
    [Anonymous Symbol]                       0x08003a24   Section        0  tasks.o(.text.xTaskResumeAll)
    i.__0printf$8                            0x08003af8   Section        0  printf8.o(i.__0printf$8)
    i.__scatterload_copy                     0x08003b18   Section       14  handlers.o(i.__scatterload_copy)
    i.__scatterload_null                     0x08003b26   Section        2  handlers.o(i.__scatterload_null)
    i.__scatterload_zeroinit                 0x08003b28   Section       14  handlers.o(i.__scatterload_zeroinit)
    _printf_core                             0x08003b39   Thumb Code   996  printf8.o(i._printf_core)
    i._printf_core                           0x08003b38   Section        0  printf8.o(i._printf_core)
    _printf_post_padding                     0x08003f49   Thumb Code    36  printf8.o(i._printf_post_padding)
    i._printf_post_padding                   0x08003f48   Section        0  printf8.o(i._printf_post_padding)
    _printf_pre_padding                      0x08003f6d   Thumb Code    46  printf8.o(i._printf_pre_padding)
    i._printf_pre_padding                    0x08003f6c   Section        0  printf8.o(i._printf_pre_padding)
    i.puts                                   0x08003f9c   Section        0  puts.o(i.puts)
    .L__const.rcu_clock_freq_get.apb2_exp    0x08003fc0   Data           8  gd32f10x_rcu.o(.rodata.cst8)
    .L.str.7                                 0x08003fc8   Data          22  devicesqueue.o(.rodata.str1.1)
    [Anonymous Symbol]                       0x08003fc8   Section        0  devicesqueue.o(.rodata.str1.1)
    .Lstr                                    0x08003fde   Data          28  main.o(.rodata.str1.1)
    [Anonymous Symbol]                       0x08003fde   Section        0  main.o(.rodata.str1.1)
    .Lstr.11                                 0x08003ffa   Data          17  main.o(.rodata.str1.1)
    .Lstr.12                                 0x0800400b   Data          20  main.o(.rodata.str1.1)
    .L.str.9                                 0x0800401f   Data          10  main.o(.rodata.str1.1)
    .L.str.3                                 0x08004029   Data          86  usertask.o(.rodata.str1.1)
    [Anonymous Symbol]                       0x08004029   Section        0  usertask.o(.rodata.str1.1)
    .L.str.1                                 0x0800407f   Data           9  usertask.o(.rodata.str1.1)
    .data                                    0x20000000   Section        4  stdout.o(.data)
    uxCriticalNesting                        0x20000020   Data           4  port.o(.data.uxCriticalNesting)
    [Anonymous Symbol]                       0x20000020   Section        0  port.o(.data.uxCriticalNesting)
    .L_MergedGlobals                         0x20000028   Data         120  tasks.o(.bss..L_MergedGlobals)
    [Anonymous Symbol]                       0x20000028   Section        0  tasks.o(.bss..L_MergedGlobals)
    uxTopReadyPriority                       0x2000002c   Data           4  tasks.o(.bss..L_MergedGlobals)
    uxTaskNumber                             0x20000030   Data           4  tasks.o(.bss..L_MergedGlobals)
    uxDeletedTasksWaitingCleanUp             0x20000034   Data           4  tasks.o(.bss..L_MergedGlobals)
    uxCurrentNumberOfTasks                   0x20000038   Data           4  tasks.o(.bss..L_MergedGlobals)
    xSchedulerRunning                        0x2000003c   Data           4  tasks.o(.bss..L_MergedGlobals)
    xTickCount                               0x20000040   Data           4  tasks.o(.bss..L_MergedGlobals)
    uxSchedulerSuspended                     0x20000044   Data           4  tasks.o(.bss..L_MergedGlobals)
    xYieldPending                            0x20000048   Data           4  tasks.o(.bss..L_MergedGlobals)
    xIdleTaskHandle                          0x2000004c   Data           4  tasks.o(.bss..L_MergedGlobals)
    xNextTaskUnblockTime                     0x20000050   Data           4  tasks.o(.bss..L_MergedGlobals)
    xPendedTicks                             0x20000054   Data           4  tasks.o(.bss..L_MergedGlobals)
    pxDelayedTaskList                        0x20000058   Data           4  tasks.o(.bss..L_MergedGlobals)
    pxOverflowDelayedTaskList                0x2000005c   Data           4  tasks.o(.bss..L_MergedGlobals)
    xNumOfOverflows                          0x20000060   Data           4  tasks.o(.bss..L_MergedGlobals)
    xTasksWaitingTermination                 0x20000064   Data          20  tasks.o(.bss..L_MergedGlobals)
    xSuspendedTaskList                       0x20000078   Data          20  tasks.o(.bss..L_MergedGlobals)
    xPendingReadyList                        0x2000008c   Data          20  tasks.o(.bss..L_MergedGlobals)
    .L_MergedGlobals                         0x200000a0   Data          32  heap_4.o(.bss..L_MergedGlobals)
    xBlockAllocatedBit                       0x200000a0   Data           1  heap_4.o(.bss..L_MergedGlobals)
    [Anonymous Symbol]                       0x200000a0   Section        0  heap_4.o(.bss..L_MergedGlobals)
    pxEnd                                    0x200000a4   Data           4  heap_4.o(.bss..L_MergedGlobals)
    xFreeBytesRemaining                      0x200000a8   Data           4  heap_4.o(.bss..L_MergedGlobals)
    xMinimumEverFreeBytesRemaining           0x200000ac   Data           4  heap_4.o(.bss..L_MergedGlobals)
    xNumberOfSuccessfulAllocations           0x200000b0   Data           4  heap_4.o(.bss..L_MergedGlobals)
    xNumberOfSuccessfulFrees                 0x200000b4   Data           4  heap_4.o(.bss..L_MergedGlobals)
    xStart                                   0x200000b8   Data           8  heap_4.o(.bss..L_MergedGlobals)
    .L_MergedGlobals                         0x200000c0   Data          32  gd32f10x_it.o(.bss..L_MergedGlobals)
    USART0_IRQHandler.uiDMANdtrOld           0x200000c0   Data           4  gd32f10x_it.o(.bss..L_MergedGlobals)
    [Anonymous Symbol]                       0x200000c0   Section        0  gd32f10x_it.o(.bss..L_MergedGlobals)
    USART0_IRQHandler.uiMDANdtrNow           0x200000c4   Data           4  gd32f10x_it.o(.bss..L_MergedGlobals)
    USART1_IRQHandler.uiDMANdtrOld           0x200000c8   Data           4  gd32f10x_it.o(.bss..L_MergedGlobals)
    USART1_IRQHandler.uiMDANdtrNow           0x200000cc   Data           4  gd32f10x_it.o(.bss..L_MergedGlobals)
    USART2_IRQHandler.uiDMANdtrOld           0x200000d0   Data           4  gd32f10x_it.o(.bss..L_MergedGlobals)
    USART2_IRQHandler.uiMDANdtrNow           0x200000d4   Data           4  gd32f10x_it.o(.bss..L_MergedGlobals)
    UART3_IRQHandler.uiDMANdtrOld            0x200000d8   Data           4  gd32f10x_it.o(.bss..L_MergedGlobals)
    UART3_IRQHandler.uiMDANdtrNow            0x200000dc   Data           4  gd32f10x_it.o(.bss..L_MergedGlobals)
    .L_MergedGlobals                         0x200000e0   Data         112  devicesqueue.o(.bss..L_MergedGlobals)
    [Anonymous Symbol]                       0x200000e0   Section        0  devicesqueue.o(.bss..L_MergedGlobals)
    .L_MergedGlobals                         0x20000150   Data          88  deviceskey.o(.bss..L_MergedGlobals)
    [Anonymous Symbol]                       0x20000150   Section        0  deviceskey.o(.bss..L_MergedGlobals)
    .L_MergedGlobals                         0x200001a8   Data         124  devicesled.o(.bss..L_MergedGlobals)
    st_uiLedTickCnt                          0x200001a8   Data           4  devicesled.o(.bss..L_MergedGlobals)
    [Anonymous Symbol]                       0x200001a8   Section        0  devicesled.o(.bss..L_MergedGlobals)
    st_typeLedInfo                           0x200001e8   Data          60  devicesled.o(.bss..L_MergedGlobals)
    .L_MergedGlobals                         0x20000224   Data           8  usertask.o(.bss..L_MergedGlobals)
    [Anonymous Symbol]                       0x20000224   Section        0  usertask.o(.bss..L_MergedGlobals)
    .L_MergedGlobals.1                       0x2000022c   Data          40  tasks.o(.bss..L_MergedGlobals.1)
    xDelayedTaskList1                        0x2000022c   Data          20  tasks.o(.bss..L_MergedGlobals.1)
    [Anonymous Symbol]                       0x2000022c   Section        0  tasks.o(.bss..L_MergedGlobals.1)
    xDelayedTaskList2                        0x20000240   Data          20  tasks.o(.bss..L_MergedGlobals.1)
    .L_MergedGlobals.8                       0x20000254   Data          56  devicesqueue.o(.bss..L_MergedGlobals.8)
    [Anonymous Symbol]                       0x20000254   Section        0  devicesqueue.o(.bss..L_MergedGlobals.8)
    pxReadyTasksLists                        0x200007b0   Data         320  tasks.o(.bss.pxReadyTasksLists)
    [Anonymous Symbol]                       0x200007b0   Section        0  tasks.o(.bss.pxReadyTasksLists)
    st_ucQueueKeyInputBuff                   0x200008f0   Data         260  devicesqueue.o(.bss.st_ucQueueKeyInputBuff)
    [Anonymous Symbol]                       0x200008f0   Section        0  devicesqueue.o(.bss.st_ucQueueKeyInputBuff)
    st_ucQueueUart0ReadBuff                  0x200009f4   Data        1028  devicesqueue.o(.bss.st_ucQueueUart0ReadBuff)
    [Anonymous Symbol]                       0x200009f4   Section        0  devicesqueue.o(.bss.st_ucQueueUart0ReadBuff)
    st_ucQueueUart1ReadBuff                  0x20000df8   Data        1028  devicesqueue.o(.bss.st_ucQueueUart1ReadBuff)
    [Anonymous Symbol]                       0x20000df8   Section        0  devicesqueue.o(.bss.st_ucQueueUart1ReadBuff)
    st_ucQueueUart2ReadBuff                  0x200011fc   Data        1028  devicesqueue.o(.bss.st_ucQueueUart2ReadBuff)
    [Anonymous Symbol]                       0x200011fc   Section        0  devicesqueue.o(.bss.st_ucQueueUart2ReadBuff)
    st_ucQueueUart3ReadBuff                  0x20001600   Data        1028  devicesqueue.o(.bss.st_ucQueueUart3ReadBuff)
    [Anonymous Symbol]                       0x20001600   Section        0  devicesqueue.o(.bss.st_ucQueueUart3ReadBuff)
    st_ucQueueUart4ReadBuff                  0x20001a04   Data        1028  devicesqueue.o(.bss.st_ucQueueUart4ReadBuff)
    [Anonymous Symbol]                       0x20001a04   Section        0  devicesqueue.o(.bss.st_ucQueueUart4ReadBuff)
    ucHeap                                   0x20001e08   Data       16384  heap_4.o(.bss.ucHeap)
    [Anonymous Symbol]                       0x20001e08   Section        0  heap_4.o(.bss.ucHeap)
    vTaskReadMessage.st_TaskReadMessageBuff  0x20005e08   Data        2052  usertask.o(.bss.vTaskReadMessage.st_TaskReadMessageBuff)
    [Anonymous Symbol]                       0x20005e08   Section        0  usertask.o(.bss.vTaskReadMessage.st_TaskReadMessageBuff)
    STACK                                    0x20006610   Section     1024  startup_gd32f10x_hd.o(STACK)

    Global Symbols

    Symbol Name                              Value     Ov Type        Size  Object(Section)

    BuildAttributes$$THM_ISAv4$P$D$K$B$S$PE$A:L22UL41UL21$X:L11$S22US41US21$IEEE1$IW$~IW$USESV6$~STKCKD$USESV7$~SHL$OTIME$ROPI$EBA8$MICROLIB$REQ8$PRES8$EABIv2 0x00000000   Number         0  anon$$obj.o ABSOLUTE
    _printf_a                                0x00000000   Number         0  printfstubs.o ABSOLUTE
    _printf_c                                0x00000000   Number         0  printfstubs.o ABSOLUTE
    _printf_charcount                        0x00000000   Number         0  printfstubs.o ABSOLUTE
    _printf_d                                0x00000000   Number         0  printfstubs.o ABSOLUTE
    _printf_e                                0x00000000   Number         0  printfstubs.o ABSOLUTE
    _printf_f                                0x00000000   Number         0  printfstubs.o ABSOLUTE
    _printf_flags                            0x00000000   Number         0  printfstubs.o ABSOLUTE
    _printf_fp_dec                           0x00000000   Number         0  printfstubs.o ABSOLUTE
    _printf_fp_hex                           0x00000000   Number         0  printfstubs.o ABSOLUTE
    _printf_g                                0x00000000   Number         0  printfstubs.o ABSOLUTE
    _printf_i                                0x00000000   Number         0  printfstubs.o ABSOLUTE
    _printf_int_dec                          0x00000000   Number         0  printfstubs.o ABSOLUTE
    _printf_l                                0x00000000   Number         0  printfstubs.o ABSOLUTE
    _printf_lc                               0x00000000   Number         0  printfstubs.o ABSOLUTE
    _printf_ll                               0x00000000   Number         0  printfstubs.o ABSOLUTE
    _printf_lld                              0x00000000   Number         0  printfstubs.o ABSOLUTE
    _printf_lli                              0x00000000   Number         0  printfstubs.o ABSOLUTE
    _printf_llo                              0x00000000   Number         0  printfstubs.o ABSOLUTE
    _printf_llu                              0x00000000   Number         0  printfstubs.o ABSOLUTE
    _printf_llx                              0x00000000   Number         0  printfstubs.o ABSOLUTE
    _printf_longlong_dec                     0x00000000   Number         0  printfstubs.o ABSOLUTE
    _printf_longlong_hex                     0x00000000   Number         0  printfstubs.o ABSOLUTE
    _printf_longlong_oct                     0x00000000   Number         0  printfstubs.o ABSOLUTE
    _printf_ls                               0x00000000   Number         0  printfstubs.o ABSOLUTE
    _printf_mbtowc                           0x00000000   Number         0  printfstubs.o ABSOLUTE
    _printf_n                                0x00000000   Number         0  printfstubs.o ABSOLUTE
    _printf_o                                0x00000000   Number         0  printfstubs.o ABSOLUTE
    _printf_p                                0x00000000   Number         0  printfstubs.o ABSOLUTE
    _printf_percent                          0x00000000   Number         0  printfstubs.o ABSOLUTE
    _printf_pre_padding                      0x00000000   Number         0  printfstubs.o ABSOLUTE
    _printf_return_value                     0x00000000   Number         0  printfstubs.o ABSOLUTE
    _printf_s                                0x00000000   Number         0  printfstubs.o ABSOLUTE
    _printf_sizespec                         0x00000000   Number         0  printfstubs.o ABSOLUTE
    _printf_str                              0x00000000   Number         0  printfstubs.o ABSOLUTE
    _printf_truncate_signed                  0x00000000   Number         0  printfstubs.o ABSOLUTE
    _printf_truncate_unsigned                0x00000000   Number         0  printfstubs.o ABSOLUTE
    _printf_u                                0x00000000   Number         0  printfstubs.o ABSOLUTE
    _printf_wc                               0x00000000   Number         0  printfstubs.o ABSOLUTE
    _printf_wctomb                           0x00000000   Number         0  printfstubs.o ABSOLUTE
    _printf_widthprec                        0x00000000   Number         0  printfstubs.o ABSOLUTE
    _printf_x                                0x00000000   Number         0  printfstubs.o ABSOLUTE
    __cpp_initialize__aeabi_                  - Undefined Weak Reference
    __cxa_finalize                            - Undefined Weak Reference
    __decompress                              - Undefined Weak Reference
    _clock_init                               - Undefined Weak Reference
    _microlib_exit                            - Undefined Weak Reference
    __Vectors_Size                           0x00000130   Number         0  startup_gd32f10x_hd.o ABSOLUTE
    __Vectors                                0x08000000   Data           4  startup_gd32f10x_hd.o(RESET)
    __Vectors_End                            0x08000130   Data           0  startup_gd32f10x_hd.o(RESET)
    __main                                   0x08000131   Thumb Code     0  entry.o(.ARM.Collect$$$$00000000)
    _main_stk                                0x08000131   Thumb Code     0  entry2.o(.ARM.Collect$$$$00000001)
    _main_scatterload                        0x08000135   Thumb Code     0  entry5.o(.ARM.Collect$$$$00000004)
    __main_after_scatterload                 0x08000139   Thumb Code     0  entry5.o(.ARM.Collect$$$$00000004)
    _main_clock                              0x08000139   Thumb Code     0  entry7b.o(.ARM.Collect$$$$00000008)
    _main_cpp_init                           0x08000139   Thumb Code     0  entry8b.o(.ARM.Collect$$$$0000000A)
    _main_init                               0x08000139   Thumb Code     0  entry9a.o(.ARM.Collect$$$$0000000B)
    __rt_final_cpp                           0x08000141   Thumb Code     0  entry10a.o(.ARM.Collect$$$$0000000D)
    __rt_final_exit                          0x08000141   Thumb Code     0  entry11a.o(.ARM.Collect$$$$0000000F)
    Reset_Handler                            0x08000145   Thumb Code     8  startup_gd32f10x_hd.o(.text)
    ADC0_1_IRQHandler                        0x0800015f   Thumb Code     0  startup_gd32f10x_hd.o(.text)
    ADC2_IRQHandler                          0x0800015f   Thumb Code     0  startup_gd32f10x_hd.o(.text)
    CAN0_EWMC_IRQHandler                     0x0800015f   Thumb Code     0  startup_gd32f10x_hd.o(.text)
    CAN0_RX1_IRQHandler                      0x0800015f   Thumb Code     0  startup_gd32f10x_hd.o(.text)
    DMA0_Channel0_IRQHandler                 0x0800015f   Thumb Code     0  startup_gd32f10x_hd.o(.text)
    DMA0_Channel1_IRQHandler                 0x0800015f   Thumb Code     0  startup_gd32f10x_hd.o(.text)
    DMA0_Channel2_IRQHandler                 0x0800015f   Thumb Code     0  startup_gd32f10x_hd.o(.text)
    DMA0_Channel3_IRQHandler                 0x0800015f   Thumb Code     0  startup_gd32f10x_hd.o(.text)
    DMA0_Channel4_IRQHandler                 0x0800015f   Thumb Code     0  startup_gd32f10x_hd.o(.text)
    DMA0_Channel5_IRQHandler                 0x0800015f   Thumb Code     0  startup_gd32f10x_hd.o(.text)
    DMA0_Channel6_IRQHandler                 0x0800015f   Thumb Code     0  startup_gd32f10x_hd.o(.text)
    DMA1_Channel0_IRQHandler                 0x0800015f   Thumb Code     0  startup_gd32f10x_hd.o(.text)
    DMA1_Channel1_IRQHandler                 0x0800015f   Thumb Code     0  startup_gd32f10x_hd.o(.text)
    DMA1_Channel2_IRQHandler                 0x0800015f   Thumb Code     0  startup_gd32f10x_hd.o(.text)
    DMA1_Channel3_4_IRQHandler               0x0800015f   Thumb Code     0  startup_gd32f10x_hd.o(.text)
    EXMC_IRQHandler                          0x0800015f   Thumb Code     0  startup_gd32f10x_hd.o(.text)
    EXTI0_IRQHandler                         0x0800015f   Thumb Code     0  startup_gd32f10x_hd.o(.text)
    EXTI10_15_IRQHandler                     0x0800015f   Thumb Code     0  startup_gd32f10x_hd.o(.text)
    EXTI1_IRQHandler                         0x0800015f   Thumb Code     0  startup_gd32f10x_hd.o(.text)
    EXTI2_IRQHandler                         0x0800015f   Thumb Code     0  startup_gd32f10x_hd.o(.text)
    EXTI3_IRQHandler                         0x0800015f   Thumb Code     0  startup_gd32f10x_hd.o(.text)
    EXTI4_IRQHandler                         0x0800015f   Thumb Code     0  startup_gd32f10x_hd.o(.text)
    EXTI5_9_IRQHandler                       0x0800015f   Thumb Code     0  startup_gd32f10x_hd.o(.text)
    FMC_IRQHandler                           0x0800015f   Thumb Code     0  startup_gd32f10x_hd.o(.text)
    I2C0_ER_IRQHandler                       0x0800015f   Thumb Code     0  startup_gd32f10x_hd.o(.text)
    I2C0_EV_IRQHandler                       0x0800015f   Thumb Code     0  startup_gd32f10x_hd.o(.text)
    I2C1_ER_IRQHandler                       0x0800015f   Thumb Code     0  startup_gd32f10x_hd.o(.text)
    I2C1_EV_IRQHandler                       0x0800015f   Thumb Code     0  startup_gd32f10x_hd.o(.text)
    LVD_IRQHandler                           0x0800015f   Thumb Code     0  startup_gd32f10x_hd.o(.text)
    RCU_IRQHandler                           0x0800015f   Thumb Code     0  startup_gd32f10x_hd.o(.text)
    RTC_Alarm_IRQHandler                     0x0800015f   Thumb Code     0  startup_gd32f10x_hd.o(.text)
    RTC_IRQHandler                           0x0800015f   Thumb Code     0  startup_gd32f10x_hd.o(.text)
    SDIO_IRQHandler                          0x0800015f   Thumb Code     0  startup_gd32f10x_hd.o(.text)
    SPI0_IRQHandler                          0x0800015f   Thumb Code     0  startup_gd32f10x_hd.o(.text)
    SPI1_IRQHandler                          0x0800015f   Thumb Code     0  startup_gd32f10x_hd.o(.text)
    SPI2_IRQHandler                          0x0800015f   Thumb Code     0  startup_gd32f10x_hd.o(.text)
    TAMPER_IRQHandler                        0x0800015f   Thumb Code     0  startup_gd32f10x_hd.o(.text)
    TIMER0_BRK_IRQHandler                    0x0800015f   Thumb Code     0  startup_gd32f10x_hd.o(.text)
    TIMER0_Channel_IRQHandler                0x0800015f   Thumb Code     0  startup_gd32f10x_hd.o(.text)
    TIMER0_TRG_CMT_IRQHandler                0x0800015f   Thumb Code     0  startup_gd32f10x_hd.o(.text)
    TIMER0_UP_IRQHandler                     0x0800015f   Thumb Code     0  startup_gd32f10x_hd.o(.text)
    TIMER1_IRQHandler                        0x0800015f   Thumb Code     0  startup_gd32f10x_hd.o(.text)
    TIMER2_IRQHandler                        0x0800015f   Thumb Code     0  startup_gd32f10x_hd.o(.text)
    TIMER3_IRQHandler                        0x0800015f   Thumb Code     0  startup_gd32f10x_hd.o(.text)
    TIMER4_IRQHandler                        0x0800015f   Thumb Code     0  startup_gd32f10x_hd.o(.text)
    TIMER7_BRK_IRQHandler                    0x0800015f   Thumb Code     0  startup_gd32f10x_hd.o(.text)
    TIMER7_Channel_IRQHandler                0x0800015f   Thumb Code     0  startup_gd32f10x_hd.o(.text)
    TIMER7_TRG_CMT_IRQHandler                0x0800015f   Thumb Code     0  startup_gd32f10x_hd.o(.text)
    TIMER7_UP_IRQHandler                     0x0800015f   Thumb Code     0  startup_gd32f10x_hd.o(.text)
    USBD_HP_CAN0_TX_IRQHandler               0x0800015f   Thumb Code     0  startup_gd32f10x_hd.o(.text)
    USBD_LP_CAN0_RX0_IRQHandler              0x0800015f   Thumb Code     0  startup_gd32f10x_hd.o(.text)
    USBD_WKUP_IRQHandler                     0x0800015f   Thumb Code     0  startup_gd32f10x_hd.o(.text)
    WWDGT_IRQHandler                         0x0800015f   Thumb Code     0  startup_gd32f10x_hd.o(.text)
    __aeabi_ldivmod                          0x08000169   Thumb Code    98  ldiv.o(.text)
    __aeabi_uldivmod                         0x080001cb   Thumb Code    98  uldiv.o(.text)
    __scatterload                            0x0800022d   Thumb Code    28  init.o(.text)
    __scatterload_rt2                        0x0800022d   Thumb Code     0  init.o(.text)
    __aeabi_llsl                             0x08000251   Thumb Code    30  llshl.o(.text)
    _ll_shift_l                              0x08000251   Thumb Code     0  llshl.o(.text)
    __aeabi_llsr                             0x0800026f   Thumb Code    32  llushr.o(.text)
    _ll_ushift_r                             0x0800026f   Thumb Code     0  llushr.o(.text)
    BusFault_Handler                         0x08000291   Thumb Code    12  gd32f10x_it.o(.text.BusFault_Handler)
    DebugMon_Handler                         0x080002b5   Thumb Code     2  gd32f10x_it.o(.text.DebugMon_Handler)
    HardFault_Handler                        0x080002b9   Thumb Code    12  gd32f10x_it.o(.text.HardFault_Handler)
    MemManage_Handler                        0x080002dd   Thumb Code    12  gd32f10x_it.o(.text.MemManage_Handler)
    NMI_Handler                              0x08000301   Thumb Code     2  gd32f10x_it.o(.text.NMI_Handler)
    PendSV_Handler                           0x08000311   Thumb Code    68  port.o(.text.PendSV_Handler)
    SVC_Handler                              0x08000361   Thumb Code    36  port.o(.text.SVC_Handler)
    SysTick_Handler                          0x08000385   Thumb Code    46  port.o(.text.SysTick_Handler)
    SystemCoreClockUpdate                    0x080003b5   Thumb Code   108  system_gd32f10x.o(.text.SystemCoreClockUpdate)
    SystemInit                               0x08000431   Thumb Code   504  system_gd32f10x.o(.text.SystemInit)
    TIMER5_IRQHandler                        0x08000629   Thumb Code    58  gd32f10x_it.o(.text.TIMER5_IRQHandler)
    TIMER6_IRQHandler                        0x08000665   Thumb Code    40  gd32f10x_it.o(.text.TIMER6_IRQHandler)
    UART3_IRQHandler                         0x0800068d   Thumb Code   210  gd32f10x_it.o(.text.UART3_IRQHandler)
    UART4_IRQHandler                         0x08000761   Thumb Code   136  gd32f10x_it.o(.text.UART4_IRQHandler)
    USART0_IRQHandler                        0x080007e9   Thumb Code   210  gd32f10x_it.o(.text.USART0_IRQHandler)
    USART1_IRQHandler                        0x080008bd   Thumb Code   210  gd32f10x_it.o(.text.USART1_IRQHandler)
    USART2_IRQHandler                        0x08000991   Thumb Code   210  gd32f10x_it.o(.text.USART2_IRQHandler)
    UsageFault_Handler                       0x08000a65   Thumb Code    12  gd32f10x_it.o(.text.UsageFault_Handler)
    cListInit                                0x08000a89   Thumb Code    20  deviceslist.o(.text.cListInit)
    cListInsert                              0x08000a9d   Thumb Code   154  deviceslist.o(.text.cListInsert)
    cListRemove                              0x08000b39   Thumb Code    30  deviceslist.o(.text.cListRemove)
    cSoftTimerCreate                         0x08000b59   Thumb Code    82  devicessofttimer.o(.text.cSoftTimerCreate)
    cSoftTimerMachine                        0x08000bad   Thumb Code   144  devicessofttimer.o(.text.cSoftTimerMachine)
    cTimer5Init                              0x08000c3d   Thumb Code   142  devicestimer.o(.text.cTimer5Init)
    cTimer6Init                              0x08000ccd   Thumb Code   142  devicestimer.o(.text.cTimer6Init)
    dma_channel_disable                      0x08000d5d   Thumb Code    38  gd32f10x_dma.o(.text.dma_channel_disable)
    dma_channel_enable                       0x08000d85   Thumb Code    38  gd32f10x_dma.o(.text.dma_channel_enable)
    dma_circulation_disable                  0x08000dad   Thumb Code    38  gd32f10x_dma.o(.text.dma_circulation_disable)
    dma_circulation_enable                   0x08000dd5   Thumb Code    38  gd32f10x_dma.o(.text.dma_circulation_enable)
    dma_deinit                               0x08000dfd   Thumb Code    62  gd32f10x_dma.o(.text.dma_deinit)
    dma_init                                 0x08000e3d   Thumb Code   118  gd32f10x_dma.o(.text.dma_init)
    dma_transfer_number_get                  0x08000eb5   Thumb Code    32  gd32f10x_dma.o(.text.dma_transfer_number_get)
    enumKeyStateMachine                      0x08000ed5   Thumb Code   278  deviceskey.o(.text.enumKeyStateMachine)
    enumQueueInit                            0x08000fed   Thumb Code   224  devicesqueue.o(.text.enumQueueInit)
    enumQueuePopDatas                        0x08001115   Thumb Code   254  devicesqueue.o(.text.enumQueuePopDatas)
    enumQueuePushByte                        0x08001215   Thumb Code   122  devicesqueue.o(.text.enumQueuePushByte)
    enumQueuePushDatas                       0x08001291   Thumb Code   326  devicesqueue.o(.text.enumQueuePushDatas)
    fputc                                    0x080013d9   Thumb Code    48  main.o(.text.fputc)
    gpio_bit_set                             0x08001409   Thumb Code     4  gd32f10x_gpio.o(.text.gpio_bit_set)
    gpio_bit_write                           0x0800140d   Thumb Code    12  gd32f10x_gpio.o(.text.gpio_bit_write)
    gpio_init                                0x08001419   Thumb Code  1306  gd32f10x_gpio.o(.text.gpio_init)
    gpio_input_bit_get                       0x08001935   Thumb Code    10  gd32f10x_gpio.o(.text.gpio_input_bit_get)
    gpio_output_bit_get                      0x08001941   Thumb Code    10  gd32f10x_gpio.o(.text.gpio_output_bit_get)
    iQueueGetLengthOfOccupy                  0x0800194d   Thumb Code    28  devicesqueue.o(.text.iQueueGetLengthOfOccupy)
    lTimeGetStamp                            0x08001969   Thumb Code    28  devicestime.o(.text.lTimeGetStamp)
    main                                     0x08001985   Thumb Code   236  main.o(.text.main)
    nvic_irq_enable                          0x08001b09   Thumb Code   102  gd32f10x_misc.o(.text.nvic_irq_enable)
    nvic_priority_group_set                  0x08001b71   Thumb Code    20  gd32f10x_misc.o(.text.nvic_priority_group_set)
    nvic_vector_table_set                    0x08001b85   Thumb Code    28  gd32f10x_misc.o(.text.nvic_vector_table_set)
    pvPortMalloc                             0x08001cd5   Thumb Code   468  heap_4.o(.text.pvPortMalloc)
    pxPortInitialiseStack                    0x08001ea9   Thumb Code    32  port.o(.text.pxPortInitialiseStack)
    rcu_all_reset_flag_clear                 0x08001ec9   Thumb Code    18  gd32f10x_rcu.o(.text.rcu_all_reset_flag_clear)
    rcu_clock_freq_get                       0x08001edd   Thumb Code   164  gd32f10x_rcu.o(.text.rcu_clock_freq_get)
    rcu_flag_get                             0x08001f91   Thumb Code    26  gd32f10x_rcu.o(.text.rcu_flag_get)
    rcu_periph_clock_enable                  0x08001fad   Thumb Code    30  gd32f10x_rcu.o(.text.rcu_periph_clock_enable)
    rcu_periph_reset_disable                 0x08001fcd   Thumb Code    32  gd32f10x_rcu.o(.text.rcu_periph_reset_disable)
    rcu_periph_reset_enable                  0x08001fed   Thumb Code    30  gd32f10x_rcu.o(.text.rcu_periph_reset_enable)
    timer_auto_reload_shadow_enable          0x0800200d   Thumb Code    10  gd32f10x_timer.o(.text.timer_auto_reload_shadow_enable)
    timer_channel_output_config              0x08002019   Thumb Code   526  gd32f10x_timer.o(.text.timer_channel_output_config)
    timer_channel_output_mode_config         0x08002229   Thumb Code    64  gd32f10x_timer.o(.text.timer_channel_output_mode_config)
    timer_channel_output_pulse_value_config  0x08002269   Thumb Code    12  gd32f10x_timer.o(.text.timer_channel_output_pulse_value_config)
    timer_channel_output_shadow_config       0x08002275   Thumb Code    64  gd32f10x_timer.o(.text.timer_channel_output_shadow_config)
    timer_channel_output_struct_para_init    0x080022b5   Thumb Code    10  gd32f10x_timer.o(.text.timer_channel_output_struct_para_init)
    timer_deinit                             0x080022c1   Thumb Code   206  gd32f10x_timer.o(.text.timer_deinit)
    timer_enable                             0x08002391   Thumb Code    10  gd32f10x_timer.o(.text.timer_enable)
    timer_init                               0x0800239d   Thumb Code   290  gd32f10x_timer.o(.text.timer_init)
    timer_interrupt_enable                   0x080024c1   Thumb Code     8  gd32f10x_timer.o(.text.timer_interrupt_enable)
    timer_interrupt_flag_clear               0x080024c9   Thumb Code     6  gd32f10x_timer.o(.text.timer_interrupt_flag_clear)
    timer_interrupt_flag_get                 0x080024d1   Thumb Code    22  gd32f10x_timer.o(.text.timer_interrupt_flag_get)
    timer_struct_para_init                   0x080024e9   Thumb Code    18  gd32f10x_timer.o(.text.timer_struct_para_init)
    uiKeyValueGet                            0x080024fd   Thumb Code   300  deviceskey.o(.text.uiKeyValueGet)
    ulTaskGenericNotifyTake                  0x08002629   Thumb Code   128  tasks.o(.text.ulTaskGenericNotifyTake)
    usart_baudrate_set                       0x080026a9   Thumb Code   108  gd32f10x_usart.o(.text.usart_baudrate_set)
    usart_deinit                             0x08002715   Thumb Code   130  gd32f10x_usart.o(.text.usart_deinit)
    usart_dma_receive_config                 0x08002799   Thumb Code    12  gd32f10x_usart.o(.text.usart_dma_receive_config)
    usart_dma_transmit_config                0x080027a5   Thumb Code    12  gd32f10x_usart.o(.text.usart_dma_transmit_config)
    usart_enable                             0x080027b1   Thumb Code    10  gd32f10x_usart.o(.text.usart_enable)
    usart_flag_clear                         0x080027bd   Thumb Code    24  gd32f10x_usart.o(.text.usart_flag_clear)
    usart_flag_get                           0x080027d5   Thumb Code    16  gd32f10x_usart.o(.text.usart_flag_get)
    usart_interrupt_enable                   0x080027e5   Thumb Code    24  gd32f10x_usart.o(.text.usart_interrupt_enable)
    usart_interrupt_flag_clear               0x080027fd   Thumb Code    24  gd32f10x_usart.o(.text.usart_interrupt_flag_clear)
    usart_interrupt_flag_get                 0x08002815   Thumb Code    34  gd32f10x_usart.o(.text.usart_interrupt_flag_get)
    usart_parity_config                      0x08002839   Thumb Code    16  gd32f10x_usart.o(.text.usart_parity_config)
    usart_receive_config                     0x08002849   Thumb Code    12  gd32f10x_usart.o(.text.usart_receive_config)
    usart_stop_bit_set                       0x08002855   Thumb Code    16  gd32f10x_usart.o(.text.usart_stop_bit_set)
    usart_transmit_config                    0x08002865   Thumb Code    12  gd32f10x_usart.o(.text.usart_transmit_config)
    usart_word_length_set                    0x08002871   Thumb Code    16  gd32f10x_usart.o(.text.usart_word_length_set)
    uxListRemove                             0x08002881   Thumb Code    36  list.o(.text.uxListRemove)
    vDWTDelayInit                            0x080028a5   Thumb Code    38  devicesdelay.o(.text.vDWTDelayInit)
    vHardCRCInit                             0x080028cd   Thumb Code     8  devicescrc.o(.text.vHardCRCInit)
    vKeyInit                                 0x080028d5   Thumb Code   108  deviceskey.o(.text.vKeyInit)
    vLedInit                                 0x08002941   Thumb Code   178  devicesled.o(.text.vLedInit)
    vLedStateMachine                         0x080029f5   Thumb Code   228  devicesled.o(.text.vLedStateMachine)
    vListInitialise                          0x08002ad9   Thumb Code    22  list.o(.text.vListInitialise)
    vListInitialiseItem                      0x08002af1   Thumb Code     6  list.o(.text.vListInitialiseItem)
    vListInsert                              0x08002af9   Thumb Code    98  list.o(.text.vListInsert)
    vListInsertEnd                           0x08002b5d   Thumb Code    28  list.o(.text.vListInsertEnd)
    vMotorOutputInit                         0x08002b79   Thumb Code   396  devicesmotor.o(.text.vMotorOutputInit)
    vPortEnterCritical                       0x08002d05   Thumb Code    32  port.o(.text.vPortEnterCritical)
    vPortExitCritical                        0x08002d25   Thumb Code    26  port.o(.text.vPortExitCritical)
    vPortFree                                0x08002d41   Thumb Code   176  heap_4.o(.text.vPortFree)
    vPortSetupTimerInterrupt                 0x08002df1   Thumb Code    30  port.o(.text.vPortSetupTimerInterrupt)
    vSoftTimerKeyCallbackFunction            0x08002e11   Thumb Code    72  deviceskey.o(.text.vSoftTimerKeyCallbackFunction)
    vSoftTimerLedCallbackFunction            0x08002e59   Thumb Code    46  devicesled.o(.text.vSoftTimerLedCallbackFunction)
    vTaskDelete                              0x08002e89   Thumb Code   200  tasks.o(.text.vTaskDelete)
    vTaskGenericNotifyGiveFromISR            0x08002f51   Thumb Code   154  tasks.o(.text.vTaskGenericNotifyGiveFromISR)
    vTaskInit                                0x08002fed   Thumb Code    96  usertask.o(.text.vTaskInit)
    vTaskKey                                 0x08003095   Thumb Code   172  usertask.o(.text.vTaskKey)
    vTaskReadMessage                         0x0800319d   Thumb Code   152  usertask.o(.text.vTaskReadMessage)
    vTaskStartScheduler                      0x08003251   Thumb Code    92  tasks.o(.text.vTaskStartScheduler)
    vTaskSuspendAll                          0x080032b5   Thumb Code    16  tasks.o(.text.vTaskSuspendAll)
    vTaskSwitchContext                       0x080032c5   Thumb Code    82  tasks.o(.text.vTaskSwitchContext)
    vUart0DMAInit                            0x08003319   Thumb Code   198  devicesuart.o(.text.vUart0DMAInit)
    vUart0Init                               0x080033e1   Thumb Code   156  devicesuart.o(.text.vUart0Init)
    vUart4Init                               0x0800347d   Thumb Code   168  devicesuart.o(.text.vUart4Init)
    vUserSystemInit                          0x08003525   Thumb Code    38  main.o(.text.vUserSystemInit)
    xPortStartScheduler                      0x0800354d   Thumb Code    96  port.o(.text.xPortStartScheduler)
    xTaskCreate                              0x080035ad   Thumb Code   678  tasks.o(.text.xTaskCreate)
    xTaskGenericNotify                       0x08003855   Thumb Code   228  tasks.o(.text.xTaskGenericNotify)
    xTaskIncrementTick                       0x08003939   Thumb Code   234  tasks.o(.text.xTaskIncrementTick)
    xTaskResumeAll                           0x08003a25   Thumb Code   210  tasks.o(.text.xTaskResumeAll)
    __0printf$8                              0x08003af9   Thumb Code    22  printf8.o(i.__0printf$8)
    __1printf$8                              0x08003af9   Thumb Code     0  printf8.o(i.__0printf$8)
    __2printf                                0x08003af9   Thumb Code     0  printf8.o(i.__0printf$8)
    __scatterload_copy                       0x08003b19   Thumb Code    14  handlers.o(i.__scatterload_copy)
    __scatterload_null                       0x08003b27   Thumb Code     2  handlers.o(i.__scatterload_null)
    __scatterload_zeroinit                   0x08003b29   Thumb Code    14  handlers.o(i.__scatterload_zeroinit)
    puts                                     0x08003f9d   Thumb Code    30  puts.o(i.puts)
    uxTopUsedPriority                        0x08004088   Data           4  tasks.o(.rodata.uxTopUsedPriority)
    Region$$Table$$Base                      0x0800408c   Number         0  anon$$obj.o(Region$$Table)
    Region$$Table$$Limit                     0x080040ac   Number         0  anon$$obj.o(Region$$Table)
    __stdout                                 0x20000000   Data           4  stdout.o(.data)
    SystemCoreClock                          0x20000004   Data           4  system_gd32f10x.o(.data.SystemCoreClock)
    g_typeListSoftTimerHead                  0x20000008   Data          24  devicessofttimer.o(.data.g_typeListSoftTimerHead)
    pxCurrentTCB                             0x20000028   Data           4  tasks.o(.bss..L_MergedGlobals)
    g_TypeQueueUart0Read                     0x200000e0   Data          28  devicesqueue.o(.bss..L_MergedGlobals)
    g_TypeQueueUart1Read                     0x200000fc   Data          28  devicesqueue.o(.bss..L_MergedGlobals)
    g_TypeQueueUart2Read                     0x20000118   Data          28  devicesqueue.o(.bss..L_MergedGlobals)
    g_TypeQueueUart3Read                     0x20000134   Data          28  devicesqueue.o(.bss..L_MergedGlobals)
    g_typeKeyData                            0x20000150   Data          32  deviceskey.o(.bss..L_MergedGlobals)
    g_typeSoftTimerKeyHanle                  0x20000170   Data          56  deviceskey.o(.bss..L_MergedGlobals)
    g_typeSoftTimerLedHanle                  0x200001b0   Data          56  devicesled.o(.bss..L_MergedGlobals)
    g_TaskReadMessageHand                    0x20000224   Data           4  usertask.o(.bss..L_MergedGlobals)
    g_TaskKeyHand                            0x20000228   Data           4  usertask.o(.bss..L_MergedGlobals)
    g_TypeQueueUart4Read                     0x20000254   Data          28  devicesqueue.o(.bss..L_MergedGlobals.8)
    g_TypeQueueKeyInput                      0x20000270   Data          28  devicesqueue.o(.bss..L_MergedGlobals.8)
    g_TaskInitHand                           0x2000028c   Data           4  usertask.o(.bss.g_TaskInitHand)
    g_USART0ReadDMABuff                      0x20000290   Data         260  devicesuart.o(.bss.g_USART0ReadDMABuff)
    g_USART0SendDMABuff                      0x20000394   Data         260  devicesuart.o(.bss.g_USART0SendDMABuff)
    g_USART1ReadDMABuff                      0x20000498   Data         260  devicesuart.o(.bss.g_USART1ReadDMABuff)
    g_USART2ReadDMABuff                      0x2000059c   Data         260  devicesuart.o(.bss.g_USART2ReadDMABuff)
    g_USART3ReadDMABuff                      0x200006a0   Data         260  devicesuart.o(.bss.g_USART3ReadDMABuff)
    g_lTimerHigh                             0x200007a8   Data           8  devicestime.o(.bss.g_lTimerHigh)
    __initial_sp                             0x20006a10   Data           0  startup_gd32f10x_hd.o(STACK)



==============================================================================

Memory Map of the image

  Image Entry point : 0x08000131

  Load Region LR_IROM1 (Base: 0x08000000, Size: 0x000040d8, Max: 0x00080000, ABSOLUTE)

    Execution Region ER_IROM1 (Exec base: 0x08000000, Load base: 0x08000000, Size: 0x000040ac, Max: 0x00080000, ABSOLUTE)

    Exec Addr    Load Addr    Size         Type   Attr      Idx    E Section Name        Object

    0x08000000   0x08000000   0x00000130   Data   RO         1478    RESET               startup_gd32f10x_hd.o
    0x08000130   0x08000130   0x00000000   Code   RO         1937  * .ARM.Collect$$$$00000000  mc_w.l(entry.o)
    0x08000130   0x08000130   0x00000004   Code   RO         2231    .ARM.Collect$$$$00000001  mc_w.l(entry2.o)
    0x08000134   0x08000134   0x00000004   Code   RO         2234    .ARM.Collect$$$$00000004  mc_w.l(entry5.o)
    0x08000138   0x08000138   0x00000000   Code   RO         2236    .ARM.Collect$$$$00000008  mc_w.l(entry7b.o)
    0x08000138   0x08000138   0x00000000   Code   RO         2238    .ARM.Collect$$$$0000000A  mc_w.l(entry8b.o)
    0x08000138   0x08000138   0x00000008   Code   RO         2239    .ARM.Collect$$$$0000000B  mc_w.l(entry9a.o)
    0x08000140   0x08000140   0x00000000   Code   RO         2241    .ARM.Collect$$$$0000000D  mc_w.l(entry10a.o)
    0x08000140   0x08000140   0x00000000   Code   RO         2243    .ARM.Collect$$$$0000000F  mc_w.l(entry11a.o)
    0x08000140   0x08000140   0x00000004   Code   RO         2232    .ARM.Collect$$$$00002712  mc_w.l(entry2.o)
    0x08000144   0x08000144   0x00000024   Code   RO         1479    .text               startup_gd32f10x_hd.o
    0x08000168   0x08000168   0x00000062   Code   RO         1944    .text               mc_w.l(ldiv.o)
    0x080001ca   0x080001ca   0x00000062   Code   RO         2257    .text               mc_w.l(uldiv.o)
    0x0800022c   0x0800022c   0x00000024   Code   RO         2272    .text               mc_w.l(init.o)
    0x08000250   0x08000250   0x0000001e   Code   RO         2274    .text               mc_w.l(llshl.o)
    0x0800026e   0x0800026e   0x00000020   Code   RO         2276    .text               mc_w.l(llushr.o)
    0x0800028e   0x0800028e   0x00000002   PAD
    0x08000290   0x08000290   0x00000024   Code   RO         1520    .text.BusFault_Handler  gd32f10x_it.o
    0x080002b4   0x080002b4   0x00000002   Code   RO         1524    .text.DebugMon_Handler  gd32f10x_it.o
    0x080002b6   0x080002b6   0x00000002   PAD
    0x080002b8   0x080002b8   0x00000024   Code   RO         1516    .text.HardFault_Handler  gd32f10x_it.o
    0x080002dc   0x080002dc   0x00000024   Code   RO         1518    .text.MemManage_Handler  gd32f10x_it.o
    0x08000300   0x08000300   0x00000002   Code   RO         1514    .text.NMI_Handler   gd32f10x_it.o
    0x08000302   0x08000302   0x0000000e   PAD
    0x08000310   0x08000310   0x00000044   Code   RO          220    .text.PendSV_Handler  port.o
    0x08000354   0x08000354   0x0000000c   PAD
    0x08000360   0x08000360   0x00000024   Code   RO          206    .text.SVC_Handler   port.o
    0x08000384   0x08000384   0x0000002e   Code   RO          222    .text.SysTick_Handler  port.o
    0x080003b2   0x080003b2   0x00000002   PAD
    0x080003b4   0x080003b4   0x0000007c   Code   RO         1488    .text.SystemCoreClockUpdate  system_gd32f10x.o
    0x08000430   0x08000430   0x000001f8   Code   RO         1486    .text.SystemInit    system_gd32f10x.o
    0x08000628   0x08000628   0x0000003a   Code   RO         1536    .text.TIMER5_IRQHandler  gd32f10x_it.o
    0x08000662   0x08000662   0x00000002   PAD
    0x08000664   0x08000664   0x00000028   Code   RO         1538    .text.TIMER6_IRQHandler  gd32f10x_it.o
    0x0800068c   0x0800068c   0x000000d2   Code   RO         1532    .text.UART3_IRQHandler  gd32f10x_it.o
    0x0800075e   0x0800075e   0x00000002   PAD
    0x08000760   0x08000760   0x00000088   Code   RO         1534    .text.UART4_IRQHandler  gd32f10x_it.o
    0x080007e8   0x080007e8   0x000000d2   Code   RO         1526    .text.USART0_IRQHandler  gd32f10x_it.o
    0x080008ba   0x080008ba   0x00000002   PAD
    0x080008bc   0x080008bc   0x000000d2   Code   RO         1528    .text.USART1_IRQHandler  gd32f10x_it.o
    0x0800098e   0x0800098e   0x00000002   PAD
    0x08000990   0x08000990   0x000000d2   Code   RO         1530    .text.USART2_IRQHandler  gd32f10x_it.o
    0x08000a62   0x08000a62   0x00000002   PAD
    0x08000a64   0x08000a64   0x00000024   Code   RO         1522    .text.UsageFault_Handler  gd32f10x_it.o
    0x08000a88   0x08000a88   0x00000014   Code   RO         1691    .text.cListInit     deviceslist.o
    0x08000a9c   0x08000a9c   0x0000009a   Code   RO         1693    .text.cListInsert   deviceslist.o
    0x08000b36   0x08000b36   0x00000002   PAD
    0x08000b38   0x08000b38   0x0000001e   Code   RO         1703    .text.cListRemove   deviceslist.o
    0x08000b56   0x08000b56   0x00000002   PAD
    0x08000b58   0x08000b58   0x00000052   Code   RO         1766    .text.cSoftTimerCreate  devicessofttimer.o
    0x08000baa   0x08000baa   0x00000002   PAD
    0x08000bac   0x08000bac   0x00000090   Code   RO         1770    .text.cSoftTimerMachine  devicessofttimer.o
    0x08000c3c   0x08000c3c   0x0000008e   Code   RO         1739    .text.cTimer5Init   devicestimer.o
    0x08000cca   0x08000cca   0x00000002   PAD
    0x08000ccc   0x08000ccc   0x0000008e   Code   RO         1741    .text.cTimer6Init   devicestimer.o
    0x08000d5a   0x08000d5a   0x00000002   PAD
    0x08000d5c   0x08000d5c   0x00000026   Code   RO          533    .text.dma_channel_disable  gd32f10x_dma.o
    0x08000d82   0x08000d82   0x00000002   PAD
    0x08000d84   0x08000d84   0x00000026   Code   RO          531    .text.dma_channel_enable  gd32f10x_dma.o
    0x08000daa   0x08000daa   0x00000002   PAD
    0x08000dac   0x08000dac   0x00000026   Code   RO          525    .text.dma_circulation_disable  gd32f10x_dma.o
    0x08000dd2   0x08000dd2   0x00000002   PAD
    0x08000dd4   0x08000dd4   0x00000026   Code   RO          523    .text.dma_circulation_enable  gd32f10x_dma.o
    0x08000dfa   0x08000dfa   0x00000002   PAD
    0x08000dfc   0x08000dfc   0x0000003e   Code   RO          517    .text.dma_deinit    gd32f10x_dma.o
    0x08000e3a   0x08000e3a   0x00000002   PAD
    0x08000e3c   0x08000e3c   0x00000076   Code   RO          521    .text.dma_init      gd32f10x_dma.o
    0x08000eb2   0x08000eb2   0x00000002   PAD
    0x08000eb4   0x08000eb4   0x00000020   Code   RO          541    .text.dma_transfer_number_get  gd32f10x_dma.o
    0x08000ed4   0x08000ed4   0x00000116   Code   RO         1672    .text.enumKeyStateMachine  deviceskey.o
    0x08000fea   0x08000fea   0x00000002   PAD
    0x08000fec   0x08000fec   0x00000128   Code   RO         1627    .text.enumQueueInit  devicesqueue.o
    0x08001114   0x08001114   0x000000fe   Code   RO         1649    .text.enumQueuePopDatas  devicesqueue.o
    0x08001212   0x08001212   0x00000002   PAD
    0x08001214   0x08001214   0x0000007a   Code   RO         1643    .text.enumQueuePushByte  devicesqueue.o
    0x0800128e   0x0800128e   0x00000002   PAD
    0x08001290   0x08001290   0x00000146   Code   RO         1647    .text.enumQueuePushDatas  devicesqueue.o
    0x080013d6   0x080013d6   0x00000002   PAD
    0x080013d8   0x080013d8   0x00000030   Code   RO         1904    .text.fputc         main.o
    0x08001408   0x08001408   0x00000004   Code   RO          767    .text.gpio_bit_set  gd32f10x_gpio.o
    0x0800140c   0x0800140c   0x0000000c   Code   RO          771    .text.gpio_bit_write  gd32f10x_gpio.o
    0x08001418   0x08001418   0x0000051a   Code   RO          765    .text.gpio_init     gd32f10x_gpio.o
    0x08001932   0x08001932   0x00000002   PAD
    0x08001934   0x08001934   0x0000000a   Code   RO          775    .text.gpio_input_bit_get  gd32f10x_gpio.o
    0x0800193e   0x0800193e   0x00000002   PAD
    0x08001940   0x08001940   0x0000000a   Code   RO          779    .text.gpio_output_bit_get  gd32f10x_gpio.o
    0x0800194a   0x0800194a   0x00000002   PAD
    0x0800194c   0x0800194c   0x0000001c   Code   RO         1635    .text.iQueueGetLengthOfOccupy  devicesqueue.o
    0x08001968   0x08001968   0x0000001c   Code   RO         1719    .text.lTimeGetStamp  devicestime.o
    0x08001984   0x08001984   0x00000184   Code   RO         1902    .text.main          main.o
    0x08001b08   0x08001b08   0x00000066   Code   RO          875    .text.nvic_irq_enable  gd32f10x_misc.o
    0x08001b6e   0x08001b6e   0x00000002   PAD
    0x08001b70   0x08001b70   0x00000014   Code   RO          873    .text.nvic_priority_group_set  gd32f10x_misc.o
    0x08001b84   0x08001b84   0x0000001c   Code   RO          879    .text.nvic_vector_table_set  gd32f10x_misc.o
    0x08001ba0   0x08001ba0   0x0000007e   Code   RO           11    .text.prvAddCurrentTaskToDelayedList  tasks.o
    0x08001c1e   0x08001c1e   0x00000002   PAD
    0x08001c20   0x08001c20   0x00000064   Code   RO           33    .text.prvIdleTask   tasks.o
    0x08001c84   0x08001c84   0x00000020   Code   RO          212    .text.prvPortStartFirstTask  port.o
    0x08001ca4   0x08001ca4   0x0000002e   Code   RO          204    .text.prvTaskExitError  port.o
    0x08001cd2   0x08001cd2   0x00000002   PAD
    0x08001cd4   0x08001cd4   0x000001d4   Code   RO          180    .text.pvPortMalloc  heap_4.o
    0x08001ea8   0x08001ea8   0x00000020   Code   RO          202    .text.pxPortInitialiseStack  port.o
    0x08001ec8   0x08001ec8   0x00000012   Code   RO          972    .text.rcu_all_reset_flag_clear  gd32f10x_rcu.o
    0x08001eda   0x08001eda   0x00000002   PAD
    0x08001edc   0x08001edc   0x000000b4   Code   RO          998    .text.rcu_clock_freq_get  gd32f10x_rcu.o
    0x08001f90   0x08001f90   0x0000001a   Code   RO          970    .text.rcu_flag_get  gd32f10x_rcu.o
    0x08001faa   0x08001faa   0x00000002   PAD
    0x08001fac   0x08001fac   0x0000001e   Code   RO          932    .text.rcu_periph_clock_enable  gd32f10x_rcu.o
    0x08001fca   0x08001fca   0x00000002   PAD
    0x08001fcc   0x08001fcc   0x00000020   Code   RO          942    .text.rcu_periph_reset_disable  gd32f10x_rcu.o
    0x08001fec   0x08001fec   0x0000001e   Code   RO          940    .text.rcu_periph_reset_enable  gd32f10x_rcu.o
    0x0800200a   0x0800200a   0x00000002   PAD
    0x0800200c   0x0800200c   0x0000000a   Code   RO         1225    .text.timer_auto_reload_shadow_enable  gd32f10x_timer.o
    0x08002016   0x08002016   0x00000002   PAD
    0x08002018   0x08002018   0x0000020e   Code   RO         1285    .text.timer_channel_output_config  gd32f10x_timer.o
    0x08002226   0x08002226   0x00000002   PAD
    0x08002228   0x08002228   0x00000040   Code   RO         1287    .text.timer_channel_output_mode_config  gd32f10x_timer.o
    0x08002268   0x08002268   0x0000000c   Code   RO         1289    .text.timer_channel_output_pulse_value_config  gd32f10x_timer.o
    0x08002274   0x08002274   0x00000040   Code   RO         1291    .text.timer_channel_output_shadow_config  gd32f10x_timer.o
    0x080022b4   0x080022b4   0x0000000a   Code   RO         1283    .text.timer_channel_output_struct_para_init  gd32f10x_timer.o
    0x080022be   0x080022be   0x00000002   PAD
    0x080022c0   0x080022c0   0x000000ce   Code   RO         1215    .text.timer_deinit  gd32f10x_timer.o
    0x0800238e   0x0800238e   0x00000002   PAD
    0x08002390   0x08002390   0x0000000a   Code   RO         1221    .text.timer_enable  gd32f10x_timer.o
    0x0800239a   0x0800239a   0x00000002   PAD
    0x0800239c   0x0800239c   0x00000122   Code   RO         1219    .text.timer_init    gd32f10x_timer.o
    0x080024be   0x080024be   0x00000002   PAD
    0x080024c0   0x080024c0   0x00000008   Code   RO         1341    .text.timer_interrupt_enable  gd32f10x_timer.o
    0x080024c8   0x080024c8   0x00000006   Code   RO         1347    .text.timer_interrupt_flag_clear  gd32f10x_timer.o
    0x080024ce   0x080024ce   0x00000002   PAD
    0x080024d0   0x080024d0   0x00000016   Code   RO         1345    .text.timer_interrupt_flag_get  gd32f10x_timer.o
    0x080024e6   0x080024e6   0x00000002   PAD
    0x080024e8   0x080024e8   0x00000012   Code   RO         1217    .text.timer_struct_para_init  gd32f10x_timer.o
    0x080024fa   0x080024fa   0x00000002   PAD
    0x080024fc   0x080024fc   0x0000012c   Code   RO         1676    .text.uiKeyValueGet  deviceskey.o
    0x08002628   0x08002628   0x00000080   Code   RO           67    .text.ulTaskGenericNotifyTake  tasks.o
    0x080026a8   0x080026a8   0x0000006c   Code   RO         1363    .text.usart_baudrate_set  gd32f10x_usart.o
    0x08002714   0x08002714   0x00000082   Code   RO         1361    .text.usart_deinit  gd32f10x_usart.o
    0x08002796   0x08002796   0x00000002   PAD
    0x08002798   0x08002798   0x0000000c   Code   RO         1431    .text.usart_dma_receive_config  gd32f10x_usart.o
    0x080027a4   0x080027a4   0x0000000c   Code   RO         1433    .text.usart_dma_transmit_config  gd32f10x_usart.o
    0x080027b0   0x080027b0   0x0000000a   Code   RO         1371    .text.usart_enable  gd32f10x_usart.o
    0x080027ba   0x080027ba   0x00000002   PAD
    0x080027bc   0x080027bc   0x00000018   Code   RO         1437    .text.usart_flag_clear  gd32f10x_usart.o
    0x080027d4   0x080027d4   0x00000010   Code   RO         1435    .text.usart_flag_get  gd32f10x_usart.o
    0x080027e4   0x080027e4   0x00000018   Code   RO         1439    .text.usart_interrupt_enable  gd32f10x_usart.o
    0x080027fc   0x080027fc   0x00000018   Code   RO         1445    .text.usart_interrupt_flag_clear  gd32f10x_usart.o
    0x08002814   0x08002814   0x00000022   Code   RO         1443    .text.usart_interrupt_flag_get  gd32f10x_usart.o
    0x08002836   0x08002836   0x00000002   PAD
    0x08002838   0x08002838   0x00000010   Code   RO         1365    .text.usart_parity_config  gd32f10x_usart.o
    0x08002848   0x08002848   0x0000000c   Code   RO         1377    .text.usart_receive_config  gd32f10x_usart.o
    0x08002854   0x08002854   0x00000010   Code   RO         1369    .text.usart_stop_bit_set  gd32f10x_usart.o
    0x08002864   0x08002864   0x0000000c   Code   RO         1375    .text.usart_transmit_config  gd32f10x_usart.o
    0x08002870   0x08002870   0x00000010   Code   RO         1367    .text.usart_word_length_set  gd32f10x_usart.o
    0x08002880   0x08002880   0x00000024   Code   RO          143    .text.uxListRemove  list.o
    0x080028a4   0x080028a4   0x00000026   Code   RO         1556    .text.vDWTDelayInit  devicesdelay.o
    0x080028ca   0x080028ca   0x00000002   PAD
    0x080028cc   0x080028cc   0x00000008   Code   RO         1808    .text.vHardCRCInit  devicescrc.o
    0x080028d4   0x080028d4   0x0000006c   Code   RO         1674    .text.vKeyInit      deviceskey.o
    0x08002940   0x08002940   0x000000b2   Code   RO         1785    .text.vLedInit      devicesled.o
    0x080029f2   0x080029f2   0x00000002   PAD
    0x080029f4   0x080029f4   0x000000e4   Code   RO         1795    .text.vLedStateMachine  devicesled.o
    0x08002ad8   0x08002ad8   0x00000016   Code   RO          135    .text.vListInitialise  list.o
    0x08002aee   0x08002aee   0x00000002   PAD
    0x08002af0   0x08002af0   0x00000006   Code   RO          137    .text.vListInitialiseItem  list.o
    0x08002af6   0x08002af6   0x00000002   PAD
    0x08002af8   0x08002af8   0x00000062   Code   RO          141    .text.vListInsert   list.o
    0x08002b5a   0x08002b5a   0x00000002   PAD
    0x08002b5c   0x08002b5c   0x0000001c   Code   RO          139    .text.vListInsertEnd  list.o
    0x08002b78   0x08002b78   0x0000018c   Code   RO         1881    .text.vMotorOutputInit  devicesmotor.o
    0x08002d04   0x08002d04   0x00000020   Code   RO          216    .text.vPortEnterCritical  port.o
    0x08002d24   0x08002d24   0x0000001a   Code   RO          218    .text.vPortExitCritical  port.o
    0x08002d3e   0x08002d3e   0x00000002   PAD
    0x08002d40   0x08002d40   0x000000b0   Code   RO          182    .text.vPortFree     heap_4.o
    0x08002df0   0x08002df0   0x0000001e   Code   RO          210    .text.vPortSetupTimerInterrupt  port.o
    0x08002e0e   0x08002e0e   0x00000002   PAD
    0x08002e10   0x08002e10   0x00000048   Code   RO         1670    .text.vSoftTimerKeyCallbackFunction  deviceskey.o
    0x08002e58   0x08002e58   0x0000002e   Code   RO         1781    .text.vSoftTimerLedCallbackFunction  devicesled.o
    0x08002e86   0x08002e86   0x00000002   PAD
    0x08002e88   0x08002e88   0x000000c8   Code   RO            5    .text.vTaskDelete   tasks.o
    0x08002f50   0x08002f50   0x0000009a   Code   RO           75    .text.vTaskGenericNotifyGiveFromISR  tasks.o
    0x08002fea   0x08002fea   0x00000002   PAD
    0x08002fec   0x08002fec   0x000000a8   Code   RO         1924    .text.vTaskInit     usertask.o
    0x08003094   0x08003094   0x00000108   Code   RO         1922    .text.vTaskKey      usertask.o
    0x0800319c   0x0800319c   0x000000b4   Code   RO         1920    .text.vTaskReadMessage  usertask.o
    0x08003250   0x08003250   0x00000064   Code   RO           31    .text.vTaskStartScheduler  tasks.o
    0x080032b4   0x080032b4   0x00000010   Code   RO            9    .text.vTaskSuspendAll  tasks.o
    0x080032c4   0x080032c4   0x00000052   Code   RO           25    .text.vTaskSwitchContext  tasks.o
    0x08003316   0x08003316   0x00000002   PAD
    0x08003318   0x08003318   0x000000c6   Code   RO         1585    .text.vUart0DMAInit  devicesuart.o
    0x080033de   0x080033de   0x00000002   PAD
    0x080033e0   0x080033e0   0x0000009c   Code   RO         1583    .text.vUart0Init    devicesuart.o
    0x0800347c   0x0800347c   0x000000a8   Code   RO         1599    .text.vUart4Init    devicesuart.o
    0x08003524   0x08003524   0x00000026   Code   RO         1900    .text.vUserSystemInit  main.o
    0x0800354a   0x0800354a   0x00000002   PAD
    0x0800354c   0x0800354c   0x00000060   Code   RO          208    .text.xPortStartScheduler  port.o
    0x080035ac   0x080035ac   0x000002a6   Code   RO            3    .text.xTaskCreate   tasks.o
    0x08003852   0x08003852   0x00000002   PAD
    0x08003854   0x08003854   0x000000e4   Code   RO           71    .text.xTaskGenericNotify  tasks.o
    0x08003938   0x08003938   0x000000ea   Code   RO           37    .text.xTaskIncrementTick  tasks.o
    0x08003a22   0x08003a22   0x00000002   PAD
    0x08003a24   0x08003a24   0x000000d2   Code   RO           13    .text.xTaskResumeAll  tasks.o
    0x08003af6   0x08003af6   0x00000002   PAD
    0x08003af8   0x08003af8   0x00000020   Code   RO         2163    i.__0printf$8       mc_w.l(printf8.o)
    0x08003b18   0x08003b18   0x0000000e   Code   RO         2284    i.__scatterload_copy  mc_w.l(handlers.o)
    0x08003b26   0x08003b26   0x00000002   Code   RO         2285    i.__scatterload_null  mc_w.l(handlers.o)
    0x08003b28   0x08003b28   0x0000000e   Code   RO         2286    i.__scatterload_zeroinit  mc_w.l(handlers.o)
    0x08003b36   0x08003b36   0x00000002   PAD
    0x08003b38   0x08003b38   0x00000410   Code   RO         2170    i._printf_core      mc_w.l(printf8.o)
    0x08003f48   0x08003f48   0x00000024   Code   RO         2171    i._printf_post_padding  mc_w.l(printf8.o)
    0x08003f6c   0x08003f6c   0x0000002e   Code   RO         2172    i._printf_pre_padding  mc_w.l(printf8.o)
    0x08003f9a   0x08003f9a   0x00000002   PAD
    0x08003f9c   0x08003f9c   0x00000024   Code   RO         1940    i.puts              mc_w.l(puts.o)
    0x08003fc0   0x08003fc0   0x00000008   Data   RO         1000    .rodata.cst8        gd32f10x_rcu.o
    0x08003fc8   0x08003fc8   0x00000016   Data   RO         1659    .rodata.str1.1      devicesqueue.o
    0x08003fde   0x08003fde   0x0000004b   Data   RO         1910    .rodata.str1.1      main.o
    0x08004029   0x08004029   0x0000005f   Data   RO         1927    .rodata.str1.1      usertask.o
    0x08004088   0x08004088   0x00000004   Data   RO           81    .rodata.uxTopUsedPriority  tasks.o
    0x0800408c   0x0800408c   0x00000020   Data   RO         2283    Region$$Table       anon$$obj.o


    Execution Region RW_IRAM1 (Exec base: 0x20000000, Load base: 0x080040b0, Size: 0x00006a10, Max: 0x00010000, ABSOLUTE)

    Exec Addr    Load Addr    Size         Type   Attr      Idx    E Section Name        Object

    0x20000000   0x080040b0   0x00000004   Data   RW         2245    .data               mc_w.l(stdout.o)
    0x20000004   0x080040b4   0x00000004   Data   RW         1490    .data.SystemCoreClock  system_gd32f10x.o
    0x20000008   0x080040b8   0x00000018   Data   RW         1772    .data.g_typeListSoftTimerHead  devicessofttimer.o
    0x20000020   0x080040d0   0x00000004   Data   RW          224    .data.uxCriticalNesting  port.o
    0x20000024   0x080040d4   0x00000004   PAD
    0x20000028        -       0x00000078   Zero   RW           83    .bss..L_MergedGlobals  tasks.o
    0x200000a0        -       0x00000020   Zero   RW          193    .bss..L_MergedGlobals  heap_4.o
    0x200000c0        -       0x00000020   Zero   RW         1540    .bss..L_MergedGlobals  gd32f10x_it.o
    0x200000e0        -       0x00000070   Zero   RW         1660    .bss..L_MergedGlobals  devicesqueue.o
    0x20000150        -       0x00000058   Zero   RW         1682    .bss..L_MergedGlobals  deviceskey.o
    0x200001a8        -       0x0000007c   Zero   RW         1799    .bss..L_MergedGlobals  devicesled.o
    0x20000224        -       0x00000008   Zero   RW         1929    .bss..L_MergedGlobals  usertask.o
    0x2000022c        -       0x00000028   Zero   RW           84    .bss..L_MergedGlobals.1  tasks.o
    0x20000254        -       0x00000038   Zero   RW         1661    .bss..L_MergedGlobals.8  devicesqueue.o
    0x2000028c        -       0x00000004   Zero   RW         1928    .bss.g_TaskInitHand  usertask.o
    0x20000290        -       0x00000104   Zero   RW         1611    .bss.g_USART0ReadDMABuff  devicesuart.o
    0x20000394        -       0x00000104   Zero   RW         1612    .bss.g_USART0SendDMABuff  devicesuart.o
    0x20000498        -       0x00000104   Zero   RW         1613    .bss.g_USART1ReadDMABuff  devicesuart.o
    0x2000059c        -       0x00000104   Zero   RW         1615    .bss.g_USART2ReadDMABuff  devicesuart.o
    0x200006a0        -       0x00000104   Zero   RW         1617    .bss.g_USART3ReadDMABuff  devicesuart.o
    0x200007a4   0x080040d4   0x00000004   PAD
    0x200007a8        -       0x00000008   Zero   RW         1727    .bss.g_lTimerHigh   devicestime.o
    0x200007b0        -       0x00000140   Zero   RW           82    .bss.pxReadyTasksLists  tasks.o
    0x200008f0        -       0x00000104   Zero   RW         1658    .bss.st_ucQueueKeyInputBuff  devicesqueue.o
    0x200009f4        -       0x00000404   Zero   RW         1653    .bss.st_ucQueueUart0ReadBuff  devicesqueue.o
    0x20000df8        -       0x00000404   Zero   RW         1654    .bss.st_ucQueueUart1ReadBuff  devicesqueue.o
    0x200011fc        -       0x00000404   Zero   RW         1655    .bss.st_ucQueueUart2ReadBuff  devicesqueue.o
    0x20001600        -       0x00000404   Zero   RW         1656    .bss.st_ucQueueUart3ReadBuff  devicesqueue.o
    0x20001a04        -       0x00000404   Zero   RW         1657    .bss.st_ucQueueUart4ReadBuff  devicesqueue.o
    0x20001e08        -       0x00004000   Zero   RW          192    .bss.ucHeap         heap_4.o
    0x20005e08        -       0x00000804   Zero   RW         1926    .bss.vTaskReadMessage.st_TaskReadMessageBuff  usertask.o
    0x2000660c   0x080040d4   0x00000004   PAD
    0x20006610        -       0x00000400   Zero   RW         1476    STACK               startup_gd32f10x_hd.o


==============================================================================

Image component sizes


      Code (inc. data)   RO Data    RW Data    ZI Data      Debug   Object Name

         8          0          0          0          0       8864   devicescrc.o
        38          0          0          0          0       4850   devicesdelay.o
       758          6          0          0         88       5555   deviceskey.o
       452          8          0          0        124       4938   devicesled.o
       204          0          0          0          0       2867   deviceslist.o
       396          0          0          0          0       3382   devicesmotor.o
      1026         72         22          0       5568      11983   devicesqueue.o
       226          0          0         24          0       5085   devicessofttimer.o
        28          0          0          0          8       7060   devicestime.o
       284          0          0          0          0       3407   devicestimer.o
       522          0          0          0       1300       8321   devicesuart.o
       364          0          0          0          0       7691   gd32f10x_dma.o
      1342          0          0          0          0       8575   gd32f10x_gpio.o
      1222         96          0          0         32       4093   gd32f10x_it.o
       150          0          0          0          0       3483   gd32f10x_misc.o
       316         22          8          0          0      13405   gd32f10x_rcu.o
      1246         18          0          0          0      19915   gd32f10x_timer.o
       466          0          0          0          0       9630   gd32f10x_usart.o
       644          0          0          0      16416       5407   heap_4.o
       190          0          0          0          0       2246   list.o
       474        152         75          0          0       3908   main.o
       444         12          0          4          0       2750   port.o
        36          8        304          0       1024        840   startup_gd32f10x_hd.o
       628         16          0          4          0       2111   system_gd32f10x.o
      2256         14          4          0        480      22625   tasks.o
       612        192         95          0       2064       2319   usertask.o

    ----------------------------------------------------------------------
     14476        628        540         32      27116     175310   Object Totals
         0          0         32          0          0          0   (incl. Generated)
       144         12          0          0         12          0   (incl. Padding)

    ----------------------------------------------------------------------

      Code (inc. data)   RO Data    RW Data    ZI Data      Debug   Library Member Name

         0          0          0          0          0          0   entry.o
         0          0          0          0          0          0   entry10a.o
         0          0          0          0          0          0   entry11a.o
         8          4          0          0          0          0   entry2.o
         4          0          0          0          0          0   entry5.o
         0          0          0          0          0          0   entry7b.o
         0          0          0          0          0          0   entry8b.o
         8          4          0          0          0          0   entry9a.o
        30          0          0          0          0          0   handlers.o
        36          8          0          0          0         68   init.o
        98          0          0          0          0         84   ldiv.o
        30          0          0          0          0         68   llshl.o
        32          0          0          0          0         68   llushr.o
      1154         54          0          0          0        352   printf8.o
        36          6          0          0          0         80   puts.o
         0          0          0          4          0          0   stdout.o
        98          0          0          0          0         92   uldiv.o

    ----------------------------------------------------------------------
      1540         76          0          4          0        812   Library Totals
         6          0          0          0          0          0   (incl. Padding)

    ----------------------------------------------------------------------

      Code (inc. data)   RO Data    RW Data    ZI Data      Debug   Library Name

      1534         76          0          4          0        812   mc_w.l

    ----------------------------------------------------------------------
      1540         76          0          4          0        812   Library Totals

    ----------------------------------------------------------------------

==============================================================================


      Code (inc. data)   RO Data    RW Data    ZI Data      Debug   

     16016        704        540         36      27116     175430   Grand Totals
     16016        704        540         36      27116     175430   ELF Image Totals
     16016        704        540         36          0          0   ROM Totals

==============================================================================

    Total RO  Size (Code + RO Data)                16556 (  16.17kB)
    Total RW  Size (RW Data + ZI Data)             27152 (  26.52kB)
    Total ROM Size (Code + RO Data + RW Data)      16592 (  16.20kB)

==============================================================================

